{
  "contractName": "CapacityRegistry",
  "abi": [
    {
      "inputs": [
        {
          "internalType": "uint256",
          "name": "",
          "type": "uint256"
        }
      ],
      "name": "capacityProvidersAddresses",
      "outputs": [
        {
          "internalType": "address",
          "name": "",
          "type": "address"
        }
      ],
      "stateMutability": "view",
      "type": "function",
      "constant": true
    },
    {
      "inputs": [
        {
          "internalType": "address",
          "name": "",
          "type": "address"
        }
      ],
      "name": "capacityProvidersUrls",
      "outputs": [
        {
          "internalType": "string",
          "name": "",
          "type": "string"
        }
      ],
      "stateMutability": "view",
      "type": "function",
      "constant": true
    },
    {
      "inputs": [
        {
          "internalType": "string",
          "name": "url",
          "type": "string"
        }
      ],
      "name": "addProvider",
      "outputs": [
        {
          "internalType": "bool",
          "name": "",
          "type": "bool"
        }
      ],
      "stateMutability": "nonpayable",
      "type": "function"
    },
    {
      "inputs": [
        {
          "internalType": "string",
          "name": "url",
          "type": "string"
        }
      ],
      "name": "updateProvider",
      "outputs": [
        {
          "internalType": "bool",
          "name": "",
          "type": "bool"
        }
      ],
      "stateMutability": "nonpayable",
      "type": "function"
    },
    {
      "inputs": [
        {
          "internalType": "address",
          "name": "capacityProviderAddress",
          "type": "address"
        }
      ],
      "name": "getProviderUrl",
      "outputs": [
        {
          "internalType": "string",
          "name": "",
          "type": "string"
        }
      ],
      "stateMutability": "view",
      "type": "function",
      "constant": true
    },
    {
      "inputs": [],
      "name": "getProvidersCount",
      "outputs": [
        {
          "internalType": "uint256",
          "name": "",
          "type": "uint256"
        }
      ],
      "stateMutability": "view",
      "type": "function",
      "constant": true
    },
    {
      "inputs": [
        {
          "internalType": "uint256",
          "name": "index",
          "type": "uint256"
        }
      ],
      "name": "getProviderAddress",
      "outputs": [
        {
          "internalType": "address",
          "name": "",
          "type": "address"
        }
      ],
      "stateMutability": "view",
      "type": "function",
      "constant": true
    },
    {
      "inputs": [
        {
          "internalType": "uint256",
          "name": "index",
          "type": "uint256"
        }
      ],
      "name": "getProviderUrlByIndex",
      "outputs": [
        {
          "internalType": "string",
          "name": "",
          "type": "string"
        }
      ],
      "stateMutability": "view",
      "type": "function",
      "constant": true
    },
    {
      "inputs": [],
      "name": "getProvidersAddresses",
      "outputs": [
        {
          "internalType": "address[]",
          "name": "",
          "type": "address[]"
        }
      ],
      "stateMutability": "view",
      "type": "function",
      "constant": true
    }
  ],
  "bytecode": "0x608060405234801561001057600080fd5b506110a4806100206000396000f3fe608060405234801561001057600080fd5b50600436106100935760003560e01c806345afa2e71161006657806345afa2e714610146578063a014255314610176578063afff7966146101a6578063bfafedef146101d6578063ea2289b8146101f457610093565b806303120b4b146100985780630602109d146100c857806325957843146100f85780632d21104814610116575b600080fd5b6100b260048036038101906100ad919061085f565b610224565b6040516100bf919061091c565b60405180910390f35b6100e260048036038101906100dd9190610974565b6102c4565b6040516100ef91906109b0565b60405180910390f35b610100610303565b60405161010d9190610a89565b60405180910390f35b610130600480360381019061012b9190610974565b610391565b60405161013d919061091c565b60405180910390f35b610160600480360381019061015b9190610974565b61049f565b60405161016d91906109b0565b60405180910390f35b610190600480360381019061018b9190610be0565b6104e7565b60405161019d9190610c44565b60405180910390f35b6101c060048036038101906101bb9190610be0565b6105ca565b6040516101cd9190610c44565b60405180910390f35b6101de610710565b6040516101eb9190610c6e565b60405180910390f35b61020e6004803603810190610209919061085f565b61071d565b60405161021b919061091c565b60405180910390f35b6000602052806000526040600020600091509050805461024390610cb8565b80601f016020809104026020016040519081016040528092919081815260200182805461026f90610cb8565b80156102bc5780601f10610291576101008083540402835291602001916102bc565b820191906000526020600020905b81548152906001019060200180831161029f57829003601f168201915b505050505081565b600181815481106102d457600080fd5b906000526020600020016000915054906101000a900473ffffffffffffffffffffffffffffffffffffffff1681565b6060600180548060200260200160405190810160405280929190818152602001828054801561038757602002820191906000526020600020905b8160009054906101000a900473ffffffffffffffffffffffffffffffffffffffff1673ffffffffffffffffffffffffffffffffffffffff168152602001906001019080831161033d575b5050505050905090565b6060600080600184815481106103aa576103a9610ce9565b5b9060005260206000200160009054906101000a900473ffffffffffffffffffffffffffffffffffffffff1673ffffffffffffffffffffffffffffffffffffffff1673ffffffffffffffffffffffffffffffffffffffff168152602001908152602001600020805461041a90610cb8565b80601f016020809104026020016040519081016040528092919081815260200182805461044690610cb8565b80156104935780601f1061046857610100808354040283529160200191610493565b820191906000526020600020905b81548152906001019060200180831161047657829003601f168201915b50505050509050919050565b6000600182815481106104b5576104b4610ce9565b5b9060005260206000200160009054906101000a900473ffffffffffffffffffffffffffffffffffffffff169050919050565b6000806000803373ffffffffffffffffffffffffffffffffffffffff1673ffffffffffffffffffffffffffffffffffffffff168152602001908152602001600020805461053390610cb8565b905011610575576040517f08c379a000000000000000000000000000000000000000000000000000000000815260040161056c90610d64565b60405180910390fd5b816000803373ffffffffffffffffffffffffffffffffffffffff1673ffffffffffffffffffffffffffffffffffffffff16815260200190815260200160002090816105c09190610f30565b5060019050919050565b6000806000803373ffffffffffffffffffffffffffffffffffffffff1673ffffffffffffffffffffffffffffffffffffffff168152602001908152602001600020805461061690610cb8565b905014610658576040517f08c379a000000000000000000000000000000000000000000000000000000000815260040161064f9061104e565b60405180910390fd5b816000803373ffffffffffffffffffffffffffffffffffffffff1673ffffffffffffffffffffffffffffffffffffffff16815260200190815260200160002090816106a39190610f30565b506001339080600181540180825580915050600190039060005260206000200160009091909190916101000a81548173ffffffffffffffffffffffffffffffffffffffff021916908373ffffffffffffffffffffffffffffffffffffffff16021790555060019050919050565b6000600180549050905090565b60606000808373ffffffffffffffffffffffffffffffffffffffff1673ffffffffffffffffffffffffffffffffffffffff168152602001908152602001600020805461076890610cb8565b80601f016020809104026020016040519081016040528092919081815260200182805461079490610cb8565b80156107e15780601f106107b6576101008083540402835291602001916107e1565b820191906000526020600020905b8154815290600101906020018083116107c457829003601f168201915b50505050509050919050565b6000604051905090565b600080fd5b600080fd5b600073ffffffffffffffffffffffffffffffffffffffff82169050919050565b600061082c82610801565b9050919050565b61083c81610821565b811461084757600080fd5b50565b60008135905061085981610833565b92915050565b600060208284031215610875576108746107f7565b5b60006108838482850161084a565b91505092915050565b600081519050919050565b600082825260208201905092915050565b60005b838110156108c65780820151818401526020810190506108ab565b60008484015250505050565b6000601f19601f8301169050919050565b60006108ee8261088c565b6108f88185610897565b93506109088185602086016108a8565b610911816108d2565b840191505092915050565b6000602082019050818103600083015261093681846108e3565b905092915050565b6000819050919050565b6109518161093e565b811461095c57600080fd5b50565b60008135905061096e81610948565b92915050565b60006020828403121561098a576109896107f7565b5b60006109988482850161095f565b91505092915050565b6109aa81610821565b82525050565b60006020820190506109c560008301846109a1565b92915050565b600081519050919050565b600082825260208201905092915050565b6000819050602082019050919050565b610a0081610821565b82525050565b6000610a1283836109f7565b60208301905092915050565b6000602082019050919050565b6000610a36826109cb565b610a4081856109d6565b9350610a4b836109e7565b8060005b83811015610a7c578151610a638882610a06565b9750610a6e83610a1e565b925050600181019050610a4f565b5085935050505092915050565b60006020820190508181036000830152610aa38184610a2b565b905092915050565b600080fd5b600080fd5b7f4e487b7100000000000000000000000000000000000000000000000000000000600052604160045260246000fd5b610aed826108d2565b810181811067ffffffffffffffff82111715610b0c57610b0b610ab5565b5b80604052505050565b6000610b1f6107ed565b9050610b2b8282610ae4565b919050565b600067ffffffffffffffff821115610b4b57610b4a610ab5565b5b610b54826108d2565b9050602081019050919050565b82818337600083830152505050565b6000610b83610b7e84610b30565b610b15565b905082815260208101848484011115610b9f57610b9e610ab0565b5b610baa848285610b61565b509392505050565b600082601f830112610bc757610bc6610aab565b5b8135610bd7848260208601610b70565b91505092915050565b600060208284031215610bf657610bf56107f7565b5b600082013567ffffffffffffffff811115610c1457610c136107fc565b5b610c2084828501610bb2565b91505092915050565b60008115159050919050565b610c3e81610c29565b82525050565b6000602082019050610c596000830184610c35565b92915050565b610c688161093e565b82525050565b6000602082019050610c836000830184610c5f565b92915050565b7f4e487b7100000000000000000000000000000000000000000000000000000000600052602260045260246000fd5b60006002820490506001821680610cd057607f821691505b602082108103610ce357610ce2610c89565b5b50919050565b7f4e487b7100000000000000000000000000000000000000000000000000000000600052603260045260246000fd5b7f41646472657373206e6f74207265676973746572656400000000000000000000600082015250565b6000610d4e601683610897565b9150610d5982610d18565b602082019050919050565b60006020820190508181036000830152610d7d81610d41565b9050919050565b60008190508160005260206000209050919050565b60006020601f8301049050919050565b600082821b905092915050565b600060088302610de67fffffffffffffffffffffffffffffffffffffffffffffffffffffffffffffffff82610da9565b610df08683610da9565b95508019841693508086168417925050509392505050565b6000819050919050565b6000610e2d610e28610e238461093e565b610e08565b61093e565b9050919050565b6000819050919050565b610e4783610e12565b610e5b610e5382610e34565b848454610db6565b825550505050565b600090565b610e70610e63565b610e7b818484610e3e565b505050565b5b81811015610e9f57610e94600082610e68565b600181019050610e81565b5050565b601f821115610ee457610eb581610d84565b610ebe84610d99565b81016020851015610ecd578190505b610ee1610ed985610d99565b830182610e80565b50505b505050565b600082821c905092915050565b6000610f0760001984600802610ee9565b1980831691505092915050565b6000610f208383610ef6565b9150826002028217905092915050565b610f398261088c565b67ffffffffffffffff811115610f5257610f51610ab5565b5b610f5c8254610cb8565b610f67828285610ea3565b600060209050601f831160018114610f9a5760008415610f88578287015190505b610f928582610f14565b865550610ffa565b601f198416610fa886610d84565b60005b82811015610fd057848901518255600182019150602085019450602081019050610fab565b86831015610fed5784890151610fe9601f891682610ef6565b8355505b6001600288020188555050505b505050505050565b7f4164647265737320616c72656164792072656769737465726564000000000000600082015250565b6000611038601a83610897565b915061104382611002565b602082019050919050565b600060208201905081810360008301526110678161102b565b905091905056fea2646970667358221220bd2eedfbca53de2bd3f371a79f423a477e15e51eb02da39b9ba18a6703490f7964736f6c63430008130033",
  "immutableReferences": {},
  "source": "//SPDX-License-Identifier: MIT\r\npragma solidity ^0.8.0;\r\n\r\ncontract CapacityRegistry {\r\n\r\n    //List of capacity providers\r\n    mapping(address => string) public capacityProvidersUrls;\r\n    //Array of capacity providers addresses\r\n    address[] public capacityProvidersAddresses;\r\n\r\n    //Add capacity provider\r\n    function addProvider(string memory url) public returns (bool){\r\n        //Check if message sender address is not already registered\r\n        require(bytes(capacityProvidersUrls[msg.sender]).length == 0, \"Address already registered\");\r\n        //Add capacity provider\r\n        capacityProvidersUrls[msg.sender] = url;\r\n        capacityProvidersAddresses.push(msg.sender);\r\n        return true;\r\n    }\r\n\r\n    //Update capacity provider\r\n    function updateProvider(string memory url) public returns (bool){\r\n        //Check if message sender address is registered\r\n        require(bytes(capacityProvidersUrls[msg.sender]).length > 0, \"Address not registered\");\r\n        //Update capacity provider\r\n        capacityProvidersUrls[msg.sender] = url;\r\n        return true;\r\n    }\r\n\r\n    //Get capacity provider's url\r\n    function getProviderUrl(address capacityProviderAddress) public view returns (string memory){\r\n        return capacityProvidersUrls[capacityProviderAddress];\r\n    }\r\n\r\n    //Get capacity providers count\r\n    function getProvidersCount() public view returns (uint){\r\n        return capacityProvidersAddresses.length;\r\n    }\r\n\r\n    //Get capacity provider's address by index\r\n    function getProviderAddress(uint index) public view returns (address){\r\n        return capacityProvidersAddresses[index];\r\n    }\r\n\r\n    //Get capacity provider's url by index\r\n    function getProviderUrlByIndex(uint index) public view returns (string memory){\r\n        return capacityProvidersUrls[capacityProvidersAddresses[index]];\r\n    }\r\n\r\n    //Get capacity providers addresses\r\n    function getProvidersAddresses() public view returns (address[] memory){\r\n        return capacityProvidersAddresses;\r\n    }\r\n}",
  "sourcePath": "C:\\Users\\Marko\\Documents\\Projects\\shr-mfg-platforms-smart-contracts\\contracts\\CapacityRegistry.sol",
  "compiler": {
    "name": "solc",
    "version": "0.8.19+commit.7dd6d404.Emscripten.clang"
  },
  "schemaVersion": "3.4.15",
  "updatedAt": "2023-09-07T11:32:38.183Z",
  "networkType": "ethereum",
  "devdoc": {
    "kind": "dev",
    "methods": {},
    "version": 1
  },
  "userdoc": {
    "kind": "user",
    "methods": {},
    "version": 1
  }
}