{
  "contractName": "CapacityRegistry",
  "abi": [
    {
      "inputs": [
        {
          "internalType": "uint256",
          "name": "",
          "type": "uint256"
        }
      ],
      "name": "capacityConsumersAddresses",
      "outputs": [
        {
          "internalType": "address",
          "name": "",
          "type": "address"
        }
      ],
      "stateMutability": "view",
      "type": "function",
      "constant": true
    },
    {
      "inputs": [
        {
          "internalType": "address",
          "name": "",
          "type": "address"
        }
      ],
      "name": "capacityConsumersUrls",
      "outputs": [
        {
          "internalType": "string",
          "name": "",
          "type": "string"
        }
      ],
      "stateMutability": "view",
      "type": "function",
      "constant": true
    },
    {
      "inputs": [
        {
          "internalType": "uint256",
          "name": "",
          "type": "uint256"
        }
      ],
      "name": "capacityProvidersAddresses",
      "outputs": [
        {
          "internalType": "address",
          "name": "",
          "type": "address"
        }
      ],
      "stateMutability": "view",
      "type": "function",
      "constant": true
    },
    {
      "inputs": [
        {
          "internalType": "address",
          "name": "",
          "type": "address"
        }
      ],
      "name": "capacityProvidersUrls",
      "outputs": [
        {
          "internalType": "string",
          "name": "",
          "type": "string"
        }
      ],
      "stateMutability": "view",
      "type": "function",
      "constant": true
    },
    {
      "inputs": [
        {
          "internalType": "string",
          "name": "url",
          "type": "string"
        }
      ],
      "name": "addProvider",
      "outputs": [
        {
          "internalType": "bool",
          "name": "",
          "type": "bool"
        }
      ],
      "stateMutability": "nonpayable",
      "type": "function"
    },
    {
      "inputs": [
        {
          "internalType": "string",
          "name": "url",
          "type": "string"
        }
      ],
      "name": "addConsumer",
      "outputs": [
        {
          "internalType": "bool",
          "name": "",
          "type": "bool"
        }
      ],
      "stateMutability": "nonpayable",
      "type": "function"
    },
    {
      "inputs": [
        {
          "internalType": "string",
          "name": "url",
          "type": "string"
        }
      ],
      "name": "updateProvider",
      "outputs": [
        {
          "internalType": "bool",
          "name": "",
          "type": "bool"
        }
      ],
      "stateMutability": "nonpayable",
      "type": "function"
    },
    {
      "inputs": [
        {
          "internalType": "string",
          "name": "url",
          "type": "string"
        }
      ],
      "name": "updateConsumer",
      "outputs": [
        {
          "internalType": "bool",
          "name": "",
          "type": "bool"
        }
      ],
      "stateMutability": "nonpayable",
      "type": "function"
    },
    {
      "inputs": [
        {
          "internalType": "address",
          "name": "capacityProviderAddress",
          "type": "address"
        }
      ],
      "name": "getProviderUrl",
      "outputs": [
        {
          "internalType": "string",
          "name": "",
          "type": "string"
        }
      ],
      "stateMutability": "view",
      "type": "function",
      "constant": true
    },
    {
      "inputs": [
        {
          "internalType": "address",
          "name": "capacityConsumerAddress",
          "type": "address"
        }
      ],
      "name": "getConsumerUrl",
      "outputs": [
        {
          "internalType": "string",
          "name": "",
          "type": "string"
        }
      ],
      "stateMutability": "view",
      "type": "function",
      "constant": true
    },
    {
      "inputs": [],
      "name": "getProvidersCount",
      "outputs": [
        {
          "internalType": "uint256",
          "name": "",
          "type": "uint256"
        }
      ],
      "stateMutability": "view",
      "type": "function",
      "constant": true
    },
    {
      "inputs": [],
      "name": "getConsumersCount",
      "outputs": [
        {
          "internalType": "uint256",
          "name": "",
          "type": "uint256"
        }
      ],
      "stateMutability": "view",
      "type": "function",
      "constant": true
    },
    {
      "inputs": [
        {
          "internalType": "uint256",
          "name": "index",
          "type": "uint256"
        }
      ],
      "name": "getProviderAddress",
      "outputs": [
        {
          "internalType": "address",
          "name": "",
          "type": "address"
        }
      ],
      "stateMutability": "view",
      "type": "function",
      "constant": true
    },
    {
      "inputs": [
        {
          "internalType": "uint256",
          "name": "index",
          "type": "uint256"
        }
      ],
      "name": "getConsumerAddress",
      "outputs": [
        {
          "internalType": "address",
          "name": "",
          "type": "address"
        }
      ],
      "stateMutability": "view",
      "type": "function",
      "constant": true
    },
    {
      "inputs": [
        {
          "internalType": "uint256",
          "name": "index",
          "type": "uint256"
        }
      ],
      "name": "getProviderUrlByIndex",
      "outputs": [
        {
          "internalType": "string",
          "name": "",
          "type": "string"
        }
      ],
      "stateMutability": "view",
      "type": "function",
      "constant": true
    },
    {
      "inputs": [
        {
          "internalType": "uint256",
          "name": "index",
          "type": "uint256"
        }
      ],
      "name": "getConsumerUrlByIndex",
      "outputs": [
        {
          "internalType": "string",
          "name": "",
          "type": "string"
        }
      ],
      "stateMutability": "view",
      "type": "function",
      "constant": true
    },
    {
      "inputs": [],
      "name": "getProvidersAddresses",
      "outputs": [
        {
          "internalType": "address[]",
          "name": "",
          "type": "address[]"
        }
      ],
      "stateMutability": "view",
      "type": "function",
      "constant": true
    },
    {
      "inputs": [],
      "name": "getConsumersAddresses",
      "outputs": [
        {
          "internalType": "address[]",
          "name": "",
          "type": "address[]"
        }
      ],
      "stateMutability": "view",
      "type": "function",
      "constant": true
    }
  ],
  "bytecode": "0x608060405234801561001057600080fd5b50611882806100206000396000f3fe608060405234801561001057600080fd5b50600436106101165760003560e01c8063922e25aa116100a2578063b5d4d63d11610071578063b5d4d63d14610367578063b64eae0114610385578063bfafedef146103b5578063c5d2af02146103d3578063ea2289b81461040357610116565b8063922e25aa146102a75780639edb7584146102d7578063a014255314610307578063afff79661461033757610116565b80632d211048116100e95780632d211048146101c957806345afa2e7146101f957806362a4a36414610229578063662c1b491461025957806384eed8c91461028957610116565b806303120b4b1461011b5780630602109d1461014b57806313d968171461017b57806325957843146101ab575b600080fd5b6101356004803603810190610130919061103d565b610433565b60405161014291906110fa565b60405180910390f35b61016560048036038101906101609190611152565b6104d3565b604051610172919061118e565b60405180910390f35b61019560048036038101906101909190611152565b610512565b6040516101a291906110fa565b60405180910390f35b6101b3610621565b6040516101c09190611267565b60405180910390f35b6101e360048036038101906101de9190611152565b6106af565b6040516101f091906110fa565b60405180910390f35b610213600480360381019061020e9190611152565b6107bd565b604051610220919061118e565b60405180910390f35b610243600480360381019061023e919061103d565b610805565b60405161025091906110fa565b60405180910390f35b610273600480360381019061026e91906113be565b6108d6565b6040516102809190611422565b60405180910390f35b6102916109bb565b60405161029e9190611267565b60405180910390f35b6102c160048036038101906102bc9190611152565b610a49565b6040516102ce919061118e565b60405180910390f35b6102f160048036038101906102ec919061103d565b610a88565b6040516102fe91906110fa565b60405180910390f35b610321600480360381019061031c91906113be565b610b28565b60405161032e9190611422565b60405180910390f35b610351600480360381019061034c91906113be565b610c0b565b60405161035e9190611422565b60405180910390f35b61036f610d51565b60405161037c919061144c565b60405180910390f35b61039f600480360381019061039a9190611152565b610d5e565b6040516103ac919061118e565b60405180910390f35b6103bd610da6565b6040516103ca919061144c565b60405180910390f35b6103ed60048036038101906103e891906113be565b610db3565b6040516103fa9190611422565b60405180910390f35b61041d6004803603810190610418919061103d565b610efb565b60405161042a91906110fa565b60405180910390f35b6000602052806000526040600020600091509050805461045290611496565b80601f016020809104026020016040519081016040528092919081815260200182805461047e90611496565b80156104cb5780601f106104a0576101008083540402835291602001916104cb565b820191906000526020600020905b8154815290600101906020018083116104ae57829003601f168201915b505050505081565b600181815481106104e357600080fd5b906000526020600020016000915054906101000a900473ffffffffffffffffffffffffffffffffffffffff1681565b6060600260006003848154811061052c5761052b6114c7565b5b9060005260206000200160009054906101000a900473ffffffffffffffffffffffffffffffffffffffff1673ffffffffffffffffffffffffffffffffffffffff1673ffffffffffffffffffffffffffffffffffffffff168152602001908152602001600020805461059c90611496565b80601f01602080910402602001604051908101604052809291908181526020018280546105c890611496565b80156106155780601f106105ea57610100808354040283529160200191610615565b820191906000526020600020905b8154815290600101906020018083116105f857829003601f168201915b50505050509050919050565b606060018054806020026020016040519081016040528092919081815260200182805480156106a557602002820191906000526020600020905b8160009054906101000a900473ffffffffffffffffffffffffffffffffffffffff1673ffffffffffffffffffffffffffffffffffffffff168152602001906001019080831161065b575b5050505050905090565b6060600080600184815481106106c8576106c76114c7565b5b9060005260206000200160009054906101000a900473ffffffffffffffffffffffffffffffffffffffff1673ffffffffffffffffffffffffffffffffffffffff1673ffffffffffffffffffffffffffffffffffffffff168152602001908152602001600020805461073890611496565b80601f016020809104026020016040519081016040528092919081815260200182805461076490611496565b80156107b15780601f10610786576101008083540402835291602001916107b1565b820191906000526020600020905b81548152906001019060200180831161079457829003601f168201915b50505050509050919050565b6000600182815481106107d3576107d26114c7565b5b9060005260206000200160009054906101000a900473ffffffffffffffffffffffffffffffffffffffff169050919050565b6060600260008373ffffffffffffffffffffffffffffffffffffffff1673ffffffffffffffffffffffffffffffffffffffff168152602001908152602001600020805461085190611496565b80601f016020809104026020016040519081016040528092919081815260200182805461087d90611496565b80156108ca5780601f1061089f576101008083540402835291602001916108ca565b820191906000526020600020905b8154815290600101906020018083116108ad57829003601f168201915b50505050509050919050565b600080600260003373ffffffffffffffffffffffffffffffffffffffff1673ffffffffffffffffffffffffffffffffffffffff168152602001908152602001600020805461092390611496565b905011610965576040517f08c379a000000000000000000000000000000000000000000000000000000000815260040161095c90611542565b60405180910390fd5b81600260003373ffffffffffffffffffffffffffffffffffffffff1673ffffffffffffffffffffffffffffffffffffffff16815260200190815260200160002090816109b1919061170e565b5060019050919050565b60606003805480602002602001604051908101604052809291908181526020018280548015610a3f57602002820191906000526020600020905b8160009054906101000a900473ffffffffffffffffffffffffffffffffffffffff1673ffffffffffffffffffffffffffffffffffffffff16815260200190600101908083116109f5575b5050505050905090565b60038181548110610a5957600080fd5b906000526020600020016000915054906101000a900473ffffffffffffffffffffffffffffffffffffffff1681565b60026020528060005260406000206000915090508054610aa790611496565b80601f0160208091040260200160405190810160405280929190818152602001828054610ad390611496565b8015610b205780601f10610af557610100808354040283529160200191610b20565b820191906000526020600020905b815481529060010190602001808311610b0357829003601f168201915b505050505081565b6000806000803373ffffffffffffffffffffffffffffffffffffffff1673ffffffffffffffffffffffffffffffffffffffff1681526020019081526020016000208054610b7490611496565b905011610bb6576040517f08c379a0000000000000000000000000000000000000000000000000000000008152600401610bad90611542565b60405180910390fd5b816000803373ffffffffffffffffffffffffffffffffffffffff1673ffffffffffffffffffffffffffffffffffffffff1681526020019081526020016000209081610c01919061170e565b5060019050919050565b6000806000803373ffffffffffffffffffffffffffffffffffffffff1673ffffffffffffffffffffffffffffffffffffffff1681526020019081526020016000208054610c5790611496565b905014610c99576040517f08c379a0000000000000000000000000000000000000000000000000000000008152600401610c909061182c565b60405180910390fd5b816000803373ffffffffffffffffffffffffffffffffffffffff1673ffffffffffffffffffffffffffffffffffffffff1681526020019081526020016000209081610ce4919061170e565b506001339080600181540180825580915050600190039060005260206000200160009091909190916101000a81548173ffffffffffffffffffffffffffffffffffffffff021916908373ffffffffffffffffffffffffffffffffffffffff16021790555060019050919050565b6000600380549050905090565b600060038281548110610d7457610d736114c7565b5b9060005260206000200160009054906101000a900473ffffffffffffffffffffffffffffffffffffffff169050919050565b6000600180549050905090565b600080600260003373ffffffffffffffffffffffffffffffffffffffff1673ffffffffffffffffffffffffffffffffffffffff1681526020019081526020016000208054610e0090611496565b905014610e42576040517f08c379a0000000000000000000000000000000000000000000000000000000008152600401610e399061182c565b60405180910390fd5b81600260003373ffffffffffffffffffffffffffffffffffffffff1673ffffffffffffffffffffffffffffffffffffffff1681526020019081526020016000209081610e8e919061170e565b506003339080600181540180825580915050600190039060005260206000200160009091909190916101000a81548173ffffffffffffffffffffffffffffffffffffffff021916908373ffffffffffffffffffffffffffffffffffffffff16021790555060019050919050565b60606000808373ffffffffffffffffffffffffffffffffffffffff1673ffffffffffffffffffffffffffffffffffffffff1681526020019081526020016000208054610f4690611496565b80601f0160208091040260200160405190810160405280929190818152602001828054610f7290611496565b8015610fbf5780601f10610f9457610100808354040283529160200191610fbf565b820191906000526020600020905b815481529060010190602001808311610fa257829003601f168201915b50505050509050919050565b6000604051905090565b600080fd5b600080fd5b600073ffffffffffffffffffffffffffffffffffffffff82169050919050565b600061100a82610fdf565b9050919050565b61101a81610fff565b811461102557600080fd5b50565b60008135905061103781611011565b92915050565b60006020828403121561105357611052610fd5565b5b600061106184828501611028565b91505092915050565b600081519050919050565b600082825260208201905092915050565b60005b838110156110a4578082015181840152602081019050611089565b60008484015250505050565b6000601f19601f8301169050919050565b60006110cc8261106a565b6110d68185611075565b93506110e6818560208601611086565b6110ef816110b0565b840191505092915050565b6000602082019050818103600083015261111481846110c1565b905092915050565b6000819050919050565b61112f8161111c565b811461113a57600080fd5b50565b60008135905061114c81611126565b92915050565b60006020828403121561116857611167610fd5565b5b60006111768482850161113d565b91505092915050565b61118881610fff565b82525050565b60006020820190506111a3600083018461117f565b92915050565b600081519050919050565b600082825260208201905092915050565b6000819050602082019050919050565b6111de81610fff565b82525050565b60006111f083836111d5565b60208301905092915050565b6000602082019050919050565b6000611214826111a9565b61121e81856111b4565b9350611229836111c5565b8060005b8381101561125a57815161124188826111e4565b975061124c836111fc565b92505060018101905061122d565b5085935050505092915050565b600060208201905081810360008301526112818184611209565b905092915050565b600080fd5b600080fd5b7f4e487b7100000000000000000000000000000000000000000000000000000000600052604160045260246000fd5b6112cb826110b0565b810181811067ffffffffffffffff821117156112ea576112e9611293565b5b80604052505050565b60006112fd610fcb565b905061130982826112c2565b919050565b600067ffffffffffffffff82111561132957611328611293565b5b611332826110b0565b9050602081019050919050565b82818337600083830152505050565b600061136161135c8461130e565b6112f3565b90508281526020810184848401111561137d5761137c61128e565b5b61138884828561133f565b509392505050565b600082601f8301126113a5576113a4611289565b5b81356113b584826020860161134e565b91505092915050565b6000602082840312156113d4576113d3610fd5565b5b600082013567ffffffffffffffff8111156113f2576113f1610fda565b5b6113fe84828501611390565b91505092915050565b60008115159050919050565b61141c81611407565b82525050565b60006020820190506114376000830184611413565b92915050565b6114468161111c565b82525050565b6000602082019050611461600083018461143d565b92915050565b7f4e487b7100000000000000000000000000000000000000000000000000000000600052602260045260246000fd5b600060028204905060018216806114ae57607f821691505b6020821081036114c1576114c0611467565b5b50919050565b7f4e487b7100000000000000000000000000000000000000000000000000000000600052603260045260246000fd5b7f41646472657373206e6f74207265676973746572656400000000000000000000600082015250565b600061152c601683611075565b9150611537826114f6565b602082019050919050565b6000602082019050818103600083015261155b8161151f565b9050919050565b60008190508160005260206000209050919050565b60006020601f8301049050919050565b600082821b905092915050565b6000600883026115c47fffffffffffffffffffffffffffffffffffffffffffffffffffffffffffffffff82611587565b6115ce8683611587565b95508019841693508086168417925050509392505050565b6000819050919050565b600061160b6116066116018461111c565b6115e6565b61111c565b9050919050565b6000819050919050565b611625836115f0565b61163961163182611612565b848454611594565b825550505050565b600090565b61164e611641565b61165981848461161c565b505050565b5b8181101561167d57611672600082611646565b60018101905061165f565b5050565b601f8211156116c25761169381611562565b61169c84611577565b810160208510156116ab578190505b6116bf6116b785611577565b83018261165e565b50505b505050565b600082821c905092915050565b60006116e5600019846008026116c7565b1980831691505092915050565b60006116fe83836116d4565b9150826002028217905092915050565b6117178261106a565b67ffffffffffffffff8111156117305761172f611293565b5b61173a8254611496565b611745828285611681565b600060209050601f8311600181146117785760008415611766578287015190505b61177085826116f2565b8655506117d8565b601f19841661178686611562565b60005b828110156117ae57848901518255600182019150602085019450602081019050611789565b868310156117cb57848901516117c7601f8916826116d4565b8355505b6001600288020188555050505b505050505050565b7f4164647265737320616c72656164792072656769737465726564000000000000600082015250565b6000611816601a83611075565b9150611821826117e0565b602082019050919050565b6000602082019050818103600083015261184581611809565b905091905056fea264697066735822122017fe60f68fbbfe7d4e708dae619883b30804441e9ebf9a50b9e23233d300d61c64736f6c63430008130033",
  "immutableReferences": {},
  "source": "//SPDX-License-Identifier: MIT\r\npragma solidity ^0.8.0;\r\n\r\ncontract CapacityRegistry {\r\n\r\n    //List of capacity providers\r\n    mapping(address => string) public capacityProvidersUrls;\r\n    //Array of capacity providers addresses\r\n    address[] public capacityProvidersAddresses;\r\n\r\n    //List of capacity consumers\r\n    mapping(address => string) public capacityConsumersUrls;\r\n    //Array of capacity consumers addresses\r\n    address[] public capacityConsumersAddresses;\r\n\r\n    //Add capacity provider\r\n    function addProvider(string memory url) public returns (bool){\r\n        //Check if message sender address is not already registered\r\n        require(bytes(capacityProvidersUrls[msg.sender]).length == 0, \"Address already registered\");\r\n        //Add capacity provider\r\n        capacityProvidersUrls[msg.sender] = url;\r\n        capacityProvidersAddresses.push(msg.sender);\r\n        return true;\r\n    }\r\n\r\n    //Add capacity consumer\r\n    function addConsumer(string memory url) public returns (bool){\r\n        //Check if message sender address is not already registered\r\n        require(bytes(capacityConsumersUrls[msg.sender]).length == 0, \"Address already registered\");\r\n        //Add capacity consumer\r\n        capacityConsumersUrls[msg.sender] = url;\r\n        capacityConsumersAddresses.push(msg.sender);\r\n        return true;\r\n    }\r\n\r\n    //Update capacity provider\r\n    function updateProvider(string memory url) public returns (bool){\r\n        //Check if message sender address is registered\r\n        require(bytes(capacityProvidersUrls[msg.sender]).length > 0, \"Address not registered\");\r\n        //Update capacity provider\r\n        capacityProvidersUrls[msg.sender] = url;\r\n        return true;\r\n    }\r\n\r\n    //Update capacity consumer\r\n    function updateConsumer(string memory url) public returns (bool){\r\n        //Check if message sender address is registered\r\n        require(bytes(capacityConsumersUrls[msg.sender]).length > 0, \"Address not registered\");\r\n        //Update capacity consumer\r\n        capacityConsumersUrls[msg.sender] = url;\r\n        return true;\r\n    }\r\n\r\n    //Get capacity provider's url\r\n    function getProviderUrl(address capacityProviderAddress) public view returns (string memory){\r\n        return capacityProvidersUrls[capacityProviderAddress];\r\n    }\r\n\r\n    //Get capacity consumer's url\r\n    function getConsumerUrl(address capacityConsumerAddress) public view returns (string memory){\r\n        return capacityConsumersUrls[capacityConsumerAddress];\r\n    }\r\n\r\n    //Get capacity providers count\r\n    function getProvidersCount() public view returns (uint){\r\n        return capacityProvidersAddresses.length;\r\n    }\r\n\r\n    //Get capacity consumers count\r\n    function getConsumersCount() public view returns (uint){\r\n        return capacityConsumersAddresses.length;\r\n    }\r\n\r\n    //Get capacity provider's address by index\r\n    function getProviderAddress(uint index) public view returns (address){\r\n        return capacityProvidersAddresses[index];\r\n    }\r\n\r\n    //Get capacity consumer's address by index\r\n    function getConsumerAddress(uint index) public view returns (address){\r\n        return capacityConsumersAddresses[index];\r\n    }\r\n\r\n    //Get capacity provider's url by index\r\n    function getProviderUrlByIndex(uint index) public view returns (string memory){\r\n        return capacityProvidersUrls[capacityProvidersAddresses[index]];\r\n    }\r\n\r\n    //Get capacity consumer's url by index\r\n    function getConsumerUrlByIndex(uint index) public view returns (string memory){\r\n        return capacityConsumersUrls[capacityConsumersAddresses[index]];\r\n    }\r\n\r\n    //Get capacity providers addresses\r\n    function getProvidersAddresses() public view returns (address[] memory){\r\n        return capacityProvidersAddresses;\r\n    }\r\n\r\n    //Get capacity consumers addresses\r\n    function getConsumersAddresses() public view returns (address[] memory){\r\n        return capacityConsumersAddresses;\r\n    }\r\n}",
  "sourcePath": "C:\\Users\\Marko\\Documents\\Projects\\shr-mfg-platforms-smart-contracts\\contracts\\CapacityRegistry.sol",
  "compiler": {
    "name": "solc",
    "version": "0.8.19+commit.7dd6d404.Emscripten.clang"
  },
  "schemaVersion": "3.4.15",
  "updatedAt": "2023-09-11T13:26:26.514Z",
  "networkType": "ethereum",
  "devdoc": {
    "kind": "dev",
    "methods": {},
    "version": 1
  },
  "userdoc": {
    "kind": "user",
    "methods": {},
    "version": 1
  }
}