{
  "contractName": "CapacityPool",
  "abi": [
    {
      "anonymous": false,
      "inputs": [
        {
          "components": [
            {
              "internalType": "string",
              "name": "id",
              "type": "string"
            },
            {
              "internalType": "address",
              "name": "seller",
              "type": "address"
            },
            {
              "internalType": "uint256",
              "name": "price",
              "type": "uint256"
            },
            {
              "internalType": "uint256",
              "name": "state",
              "type": "uint256"
            },
            {
              "internalType": "uint256",
              "name": "expiryTimestamp",
              "type": "uint256"
            },
            {
              "internalType": "address",
              "name": "buyer",
              "type": "address"
            }
          ],
          "indexed": false,
          "internalType": "struct CapacityPool.Offer",
          "name": "offer",
          "type": "tuple"
        }
      ],
      "name": "OfferUpdated",
      "type": "event"
    },
    {
      "inputs": [
        {
          "internalType": "uint256",
          "name": "",
          "type": "uint256"
        }
      ],
      "name": "offers",
      "outputs": [
        {
          "internalType": "string",
          "name": "id",
          "type": "string"
        },
        {
          "internalType": "address",
          "name": "seller",
          "type": "address"
        },
        {
          "internalType": "uint256",
          "name": "price",
          "type": "uint256"
        },
        {
          "internalType": "uint256",
          "name": "state",
          "type": "uint256"
        },
        {
          "internalType": "uint256",
          "name": "expiryTimestamp",
          "type": "uint256"
        },
        {
          "internalType": "address",
          "name": "buyer",
          "type": "address"
        }
      ],
      "stateMutability": "view",
      "type": "function"
    },
    {
      "inputs": [
        {
          "internalType": "string",
          "name": "id",
          "type": "string"
        }
      ],
      "name": "isOfferUnique",
      "outputs": [
        {
          "internalType": "bool",
          "name": "",
          "type": "bool"
        }
      ],
      "stateMutability": "view",
      "type": "function"
    },
    {
      "inputs": [
        {
          "internalType": "string",
          "name": "id",
          "type": "string"
        },
        {
          "internalType": "uint256",
          "name": "price",
          "type": "uint256"
        },
        {
          "internalType": "uint256",
          "name": "expiryTimestamp",
          "type": "uint256"
        }
      ],
      "name": "addOffer",
      "outputs": [
        {
          "components": [
            {
              "internalType": "string",
              "name": "id",
              "type": "string"
            },
            {
              "internalType": "address",
              "name": "seller",
              "type": "address"
            },
            {
              "internalType": "uint256",
              "name": "price",
              "type": "uint256"
            },
            {
              "internalType": "uint256",
              "name": "state",
              "type": "uint256"
            },
            {
              "internalType": "uint256",
              "name": "expiryTimestamp",
              "type": "uint256"
            },
            {
              "internalType": "address",
              "name": "buyer",
              "type": "address"
            }
          ],
          "internalType": "struct CapacityPool.Offer",
          "name": "",
          "type": "tuple"
        }
      ],
      "stateMutability": "nonpayable",
      "type": "function"
    },
    {
      "inputs": [
        {
          "internalType": "string",
          "name": "offerId",
          "type": "string"
        }
      ],
      "name": "removeOffer",
      "outputs": [
        {
          "internalType": "bool",
          "name": "",
          "type": "bool"
        }
      ],
      "stateMutability": "nonpayable",
      "type": "function"
    },
    {
      "inputs": [
        {
          "internalType": "string",
          "name": "offerId",
          "type": "string"
        }
      ],
      "name": "getOffer",
      "outputs": [
        {
          "components": [
            {
              "internalType": "string",
              "name": "id",
              "type": "string"
            },
            {
              "internalType": "address",
              "name": "seller",
              "type": "address"
            },
            {
              "internalType": "uint256",
              "name": "price",
              "type": "uint256"
            },
            {
              "internalType": "uint256",
              "name": "state",
              "type": "uint256"
            },
            {
              "internalType": "uint256",
              "name": "expiryTimestamp",
              "type": "uint256"
            },
            {
              "internalType": "address",
              "name": "buyer",
              "type": "address"
            }
          ],
          "internalType": "struct CapacityPool.Offer",
          "name": "",
          "type": "tuple"
        }
      ],
      "stateMutability": "view",
      "type": "function"
    },
    {
      "inputs": [
        {
          "internalType": "string",
          "name": "offerId",
          "type": "string"
        }
      ],
      "name": "getOfferIndex",
      "outputs": [
        {
          "internalType": "uint256",
          "name": "",
          "type": "uint256"
        }
      ],
      "stateMutability": "view",
      "type": "function"
    },
    {
      "inputs": [
        {
          "internalType": "string",
          "name": "offerId",
          "type": "string"
        }
      ],
      "name": "acceptOffer",
      "outputs": [
        {
          "internalType": "bool",
          "name": "",
          "type": "bool"
        }
      ],
      "stateMutability": "nonpayable",
      "type": "function"
    },
    {
      "inputs": [],
      "name": "getOffers",
      "outputs": [
        {
          "components": [
            {
              "internalType": "string",
              "name": "id",
              "type": "string"
            },
            {
              "internalType": "address",
              "name": "seller",
              "type": "address"
            },
            {
              "internalType": "uint256",
              "name": "price",
              "type": "uint256"
            },
            {
              "internalType": "uint256",
              "name": "state",
              "type": "uint256"
            },
            {
              "internalType": "uint256",
              "name": "expiryTimestamp",
              "type": "uint256"
            },
            {
              "internalType": "address",
              "name": "buyer",
              "type": "address"
            }
          ],
          "internalType": "struct CapacityPool.Offer[]",
          "name": "",
          "type": "tuple[]"
        }
      ],
      "stateMutability": "view",
      "type": "function"
    },
    {
      "inputs": [
        {
          "internalType": "string",
          "name": "offerId",
          "type": "string"
        }
      ],
      "name": "isExpired",
      "outputs": [
        {
          "internalType": "bool",
          "name": "",
          "type": "bool"
        }
      ],
      "stateMutability": "view",
      "type": "function"
    },
    {
      "inputs": [],
      "name": "getOffersLength",
      "outputs": [
        {
          "internalType": "uint256",
          "name": "",
          "type": "uint256"
        }
      ],
      "stateMutability": "view",
      "type": "function"
    }
  ],
  "bytecode": "0x608060405234801561001057600080fd5b5061214d806100206000396000f3fe608060405234801561001057600080fd5b506004361061009e5760003560e01c806346b342231161006657806346b342231461018157806373c2dc12146101b15780637a510116146101cf5780638a72ea6a146101ff578063c64fafbc146102345761009e565b806312da9374146100a357806314bd3d87146100d35780632bca94a9146101035780632dbad227146101335780633ee992ee14610163575b600080fd5b6100bd60048036038101906100b891906112f5565b610264565b6040516100ca9190611359565b60405180910390f35b6100ed60048036038101906100e891906112f5565b610318565b6040516100fa9190611359565b60405180910390f35b61011d600480360381019061011891906113aa565b6104e5565b60405161012a9190611571565b60405180910390f35b61014d600480360381019061014891906112f5565b6108cd565b60405161015a91906115a2565b60405180910390f35b61016b6109b6565b6040516101789190611708565b60405180910390f35b61019b600480360381019061019691906112f5565b610b71565b6040516101a89190611359565b60405180910390f35b6101b9610d8d565b6040516101c691906115a2565b60405180910390f35b6101e960048036038101906101e491906112f5565b610d99565b6040516101f69190611571565b60405180910390f35b6102196004803603810190610214919061172a565b61100d565b60405161022b969594939291906117b0565b60405180910390f35b61024e600480360381019061024991906112f5565b611121565b60405161025b9190611359565b60405180910390f35b600080600090505b60008054905081101561030d578260405160200161028a9190611854565b60405160208183030381529060405280519060200120600082815481106102b4576102b361186b565b5b90600052602060002090600602016000016040516020016102d59190611992565b60405160208183030381529060405280519060200120036102fa576000915050610313565b8080610305906119d8565b91505061026c565b50600190505b919050565b600080610324836108cd565b9050426000828154811061033b5761033a61186b565b5b9060005260206000209060060201600401541161038d576040517f08c379a000000000000000000000000000000000000000000000000000000000815260040161038490611a6c565b60405180910390fd5b60008082815481106103a2576103a161186b565b5b906000526020600020906006020160030154146103f4576040517f08c379a00000000000000000000000000000000000000000000000000000000081526004016103eb90611ad8565b60405180910390fd5b33600082815481106104095761040861186b565b5b906000526020600020906006020160050160006101000a81548173ffffffffffffffffffffffffffffffffffffffff021916908373ffffffffffffffffffffffffffffffffffffffff16021790555060016000828154811061046e5761046d61186b565b5b9060005260206000209060060201600301819055507f80afdc3fde70757dc8072b9b5e3dcdecaf0d227fd53d908c233bf0d58e63ae3f600082815481106104b8576104b761186b565b5b90600052602060002090600602016040516104d39190611ca8565b60405180910390a16001915050919050565b6104ed611139565b6104f684610264565b610535576040517f08c379a000000000000000000000000000000000000000000000000000000000815260040161052c90611d16565b60405180910390fd5b428211610577576040517f08c379a000000000000000000000000000000000000000000000000000000000815260040161056e90611d82565b60405180910390fd5b60006040518060c001604052808681526020013373ffffffffffffffffffffffffffffffffffffffff16815260200185815260200160008152602001848152602001600073ffffffffffffffffffffffffffffffffffffffff16815250908060018154018082558091505060019003906000526020600020906006020160009091909190915060008201518160000190816106129190611f39565b5060208201518160010160006101000a81548173ffffffffffffffffffffffffffffffffffffffff021916908373ffffffffffffffffffffffffffffffffffffffff16021790555060408201518160020155606082015181600301556080820151816004015560a08201518160050160006101000a81548173ffffffffffffffffffffffffffffffffffffffff021916908373ffffffffffffffffffffffffffffffffffffffff16021790555050507f80afdc3fde70757dc8072b9b5e3dcdecaf0d227fd53d908c233bf0d58e63ae3f600060016000805490506106f6919061200b565b815481106107075761070661186b565b5b90600052602060002090600602016040516107229190611ca8565b60405180910390a16000600160008054905061073e919061200b565b8154811061074f5761074e61186b565b5b90600052602060002090600602016040518060c0016040529081600082018054610778906118c9565b80601f01602080910402602001604051908101604052809291908181526020018280546107a4906118c9565b80156107f15780601f106107c6576101008083540402835291602001916107f1565b820191906000526020600020905b8154815290600101906020018083116107d457829003601f168201915b505050505081526020016001820160009054906101000a900473ffffffffffffffffffffffffffffffffffffffff1673ffffffffffffffffffffffffffffffffffffffff1673ffffffffffffffffffffffffffffffffffffffff1681526020016002820154815260200160038201548152602001600482015481526020016005820160009054906101000a900473ffffffffffffffffffffffffffffffffffffffff1673ffffffffffffffffffffffffffffffffffffffff1673ffffffffffffffffffffffffffffffffffffffff168152505090509392505050565b600080600090505b60008054905081101561097557826040516020016108f39190611854565b604051602081830303815290604052805190602001206000828154811061091d5761091c61186b565b5b906000526020600020906006020160000160405160200161093e9190611992565b604051602081830303815290604052805190602001200361096257809150506109b1565b808061096d906119d8565b9150506108d5565b506040517f08c379a00000000000000000000000000000000000000000000000000000000081526004016109a89061208b565b60405180910390fd5b919050565b60606000805480602002602001604051908101604052809291908181526020016000905b82821015610b6857838290600052602060002090600602016040518060c0016040529081600082018054610a0d906118c9565b80601f0160208091040260200160405190810160405280929190818152602001828054610a39906118c9565b8015610a865780601f10610a5b57610100808354040283529160200191610a86565b820191906000526020600020905b815481529060010190602001808311610a6957829003601f168201915b505050505081526020016001820160009054906101000a900473ffffffffffffffffffffffffffffffffffffffff1673ffffffffffffffffffffffffffffffffffffffff1673ffffffffffffffffffffffffffffffffffffffff1681526020016002820154815260200160038201548152602001600482015481526020016005820160009054906101000a900473ffffffffffffffffffffffffffffffffffffffff1673ffffffffffffffffffffffffffffffffffffffff1673ffffffffffffffffffffffffffffffffffffffff1681525050815260200190600101906109da565b50505050905090565b600080610b7d836108cd565b90503373ffffffffffffffffffffffffffffffffffffffff1660008281548110610baa57610ba961186b565b5b906000526020600020906006020160010160009054906101000a900473ffffffffffffffffffffffffffffffffffffffff1673ffffffffffffffffffffffffffffffffffffffff1614610c32576040517f08c379a0000000000000000000000000000000000000000000000000000000008152600401610c29906120f7565b60405180910390fd5b6000808281548110610c4757610c4661186b565b5b90600052602060002090600602016003015414610c99576040517f08c379a0000000000000000000000000000000000000000000000000000000008152600401610c9090611ad8565b60405180910390fd5b4260008281548110610cae57610cad61186b565b5b90600052602060002090600602016004015411610d00576040517f08c379a0000000000000000000000000000000000000000000000000000000008152600401610cf790611a6c565b60405180910390fd5b600260008281548110610d1657610d1561186b565b5b9060005260206000209060060201600301819055507f80afdc3fde70757dc8072b9b5e3dcdecaf0d227fd53d908c233bf0d58e63ae3f60008281548110610d6057610d5f61186b565b5b9060005260206000209060060201604051610d7b9190611ca8565b60405180910390a16001915050919050565b60008080549050905090565b610da1611139565b60005b600080549050811015610fcc5782604051602001610dc29190611854565b6040516020818303038152906040528051906020012060008281548110610dec57610deb61186b565b5b9060005260206000209060060201600001604051602001610e0d9190611992565b6040516020818303038152906040528051906020012003610fb95760008181548110610e3c57610e3b61186b565b5b90600052602060002090600602016040518060c0016040529081600082018054610e65906118c9565b80601f0160208091040260200160405190810160405280929190818152602001828054610e91906118c9565b8015610ede5780601f10610eb357610100808354040283529160200191610ede565b820191906000526020600020905b815481529060010190602001808311610ec157829003601f168201915b505050505081526020016001820160009054906101000a900473ffffffffffffffffffffffffffffffffffffffff1673ffffffffffffffffffffffffffffffffffffffff1673ffffffffffffffffffffffffffffffffffffffff1681526020016002820154815260200160038201548152602001600482015481526020016005820160009054906101000a900473ffffffffffffffffffffffffffffffffffffffff1673ffffffffffffffffffffffffffffffffffffffff1673ffffffffffffffffffffffffffffffffffffffff1681525050915050611008565b8080610fc4906119d8565b915050610da4565b506040517f08c379a0000000000000000000000000000000000000000000000000000000008152600401610fff9061208b565b60405180910390fd5b919050565b6000818154811061101d57600080fd5b9060005260206000209060060201600091509050806000018054611040906118c9565b80601f016020809104026020016040519081016040528092919081815260200182805461106c906118c9565b80156110b95780601f1061108e576101008083540402835291602001916110b9565b820191906000526020600020905b81548152906001019060200180831161109c57829003601f168201915b5050505050908060010160009054906101000a900473ffffffffffffffffffffffffffffffffffffffff16908060020154908060030154908060040154908060050160009054906101000a900473ffffffffffffffffffffffffffffffffffffffff16905086565b60004261112d83610d99565b60800151109050919050565b6040518060c0016040528060608152602001600073ffffffffffffffffffffffffffffffffffffffff168152602001600081526020016000815260200160008152602001600073ffffffffffffffffffffffffffffffffffffffff1681525090565b6000604051905090565b600080fd5b600080fd5b600080fd5b600080fd5b6000601f19601f8301169050919050565b7f4e487b7100000000000000000000000000000000000000000000000000000000600052604160045260246000fd5b611202826111b9565b810181811067ffffffffffffffff82111715611221576112206111ca565b5b80604052505050565b600061123461119b565b905061124082826111f9565b919050565b600067ffffffffffffffff8211156112605761125f6111ca565b5b611269826111b9565b9050602081019050919050565b82818337600083830152505050565b600061129861129384611245565b61122a565b9050828152602081018484840111156112b4576112b36111b4565b5b6112bf848285611276565b509392505050565b600082601f8301126112dc576112db6111af565b5b81356112ec848260208601611285565b91505092915050565b60006020828403121561130b5761130a6111a5565b5b600082013567ffffffffffffffff811115611329576113286111aa565b5b611335848285016112c7565b91505092915050565b60008115159050919050565b6113538161133e565b82525050565b600060208201905061136e600083018461134a565b92915050565b6000819050919050565b61138781611374565b811461139257600080fd5b50565b6000813590506113a48161137e565b92915050565b6000806000606084860312156113c3576113c26111a5565b5b600084013567ffffffffffffffff8111156113e1576113e06111aa565b5b6113ed868287016112c7565b93505060206113fe86828701611395565b925050604061140f86828701611395565b9150509250925092565b600081519050919050565b600082825260208201905092915050565b60005b83811015611453578082015181840152602081019050611438565b60008484015250505050565b600061146a82611419565b6114748185611424565b9350611484818560208601611435565b61148d816111b9565b840191505092915050565b600073ffffffffffffffffffffffffffffffffffffffff82169050919050565b60006114c382611498565b9050919050565b6114d3816114b8565b82525050565b6114e281611374565b82525050565b600060c0830160008301518482036000860152611505828261145f565b915050602083015161151a60208601826114ca565b50604083015161152d60408601826114d9565b50606083015161154060608601826114d9565b50608083015161155360808601826114d9565b5060a083015161156660a08601826114ca565b508091505092915050565b6000602082019050818103600083015261158b81846114e8565b905092915050565b61159c81611374565b82525050565b60006020820190506115b76000830184611593565b92915050565b600081519050919050565b600082825260208201905092915050565b6000819050602082019050919050565b600060c0830160008301518482036000860152611606828261145f565b915050602083015161161b60208601826114ca565b50604083015161162e60408601826114d9565b50606083015161164160608601826114d9565b50608083015161165460808601826114d9565b5060a083015161166760a08601826114ca565b508091505092915050565b600061167e83836115e9565b905092915050565b6000602082019050919050565b600061169e826115bd565b6116a881856115c8565b9350836020820285016116ba856115d9565b8060005b858110156116f657848403895281516116d78582611672565b94506116e283611686565b925060208a019950506001810190506116be565b50829750879550505050505092915050565b600060208201905081810360008301526117228184611693565b905092915050565b6000602082840312156117405761173f6111a5565b5b600061174e84828501611395565b91505092915050565b600082825260208201905092915050565b600061177382611419565b61177d8185611757565b935061178d818560208601611435565b611796816111b9565b840191505092915050565b6117aa816114b8565b82525050565b600060c08201905081810360008301526117ca8189611768565b90506117d960208301886117a1565b6117e66040830187611593565b6117f36060830186611593565b6118006080830185611593565b61180d60a08301846117a1565b979650505050505050565b600081905092915050565b600061182e82611419565b6118388185611818565b9350611848818560208601611435565b80840191505092915050565b60006118608284611823565b915081905092915050565b7f4e487b7100000000000000000000000000000000000000000000000000000000600052603260045260246000fd5b7f4e487b7100000000000000000000000000000000000000000000000000000000600052602260045260246000fd5b600060028204905060018216806118e157607f821691505b6020821081036118f4576118f361189a565b5b50919050565b60008190508160005260206000209050919050565b6000815461191c816118c9565b6119268186611818565b94506001821660008114611941576001811461195657611989565b60ff1983168652811515820286019350611989565b61195f856118fa565b60005b8381101561198157815481890152600182019150602081019050611962565b838801955050505b50505092915050565b600061199e828461190f565b915081905092915050565b7f4e487b7100000000000000000000000000000000000000000000000000000000600052601160045260246000fd5b60006119e382611374565b91507fffffffffffffffffffffffffffffffffffffffffffffffffffffffffffffffff8203611a1557611a146119a9565b5b600182019050919050565b7f4f66666572206973206578706972656400000000000000000000000000000000600082015250565b6000611a56601083611757565b9150611a6182611a20565b602082019050919050565b60006020820190508181036000830152611a8581611a49565b9050919050565b7f4f66666572206973206e6f7420617661696c61626c6500000000000000000000600082015250565b6000611ac2601683611757565b9150611acd82611a8c565b602082019050919050565b60006020820190508181036000830152611af181611ab5565b9050919050565b60008154611b05816118c9565b611b0f8186611424565b94506001821660008114611b2a5760018114611b4057611b73565b60ff198316865281151560200286019350611b73565b611b49856118fa565b60005b83811015611b6b57815481890152600182019150602081019050611b4c565b808801955050505b50505092915050565b60008160001c9050919050565b600073ffffffffffffffffffffffffffffffffffffffff82169050919050565b6000611bbc611bb783611b7c565b611b89565b9050919050565b6000819050919050565b6000611be0611bdb83611b7c565b611bc3565b9050919050565b600060c0830160008084018583036000870152611c048382611af8565b92505060018401549050611c1781611ba9565b611c2460208701826114ca565b5060028401549050611c3581611bcd565b611c4260408701826114d9565b5060038401549050611c5381611bcd565b611c6060608701826114d9565b5060048401549050611c7181611bcd565b611c7e60808701826114d9565b5060058401549050611c8f81611ba9565b611c9c60a08701826114ca565b50819250505092915050565b60006020820190508181036000830152611cc28184611be7565b905092915050565b7f4f66666572206964206973206e6f7420756e6971756500000000000000000000600082015250565b6000611d00601683611757565b9150611d0b82611cca565b602082019050919050565b60006020820190508181036000830152611d2f81611cf3565b9050919050565b7f45787069726174696f6e206461746520697320696e2074686520706173740000600082015250565b6000611d6c601e83611757565b9150611d7782611d36565b602082019050919050565b60006020820190508181036000830152611d9b81611d5f565b9050919050565b60006020601f8301049050919050565b600082821b905092915050565b600060088302611def7fffffffffffffffffffffffffffffffffffffffffffffffffffffffffffffffff82611db2565b611df98683611db2565b95508019841693508086168417925050509392505050565b6000819050919050565b6000611e36611e31611e2c84611374565b611e11565b611374565b9050919050565b6000819050919050565b611e5083611e1b565b611e64611e5c82611e3d565b848454611dbf565b825550505050565b600090565b611e79611e6c565b611e84818484611e47565b505050565b5b81811015611ea857611e9d600082611e71565b600181019050611e8a565b5050565b601f821115611eed57611ebe816118fa565b611ec784611da2565b81016020851015611ed6578190505b611eea611ee285611da2565b830182611e89565b50505b505050565b600082821c905092915050565b6000611f1060001984600802611ef2565b1980831691505092915050565b6000611f298383611eff565b9150826002028217905092915050565b611f4282611419565b67ffffffffffffffff811115611f5b57611f5a6111ca565b5b611f6582546118c9565b611f70828285611eac565b600060209050601f831160018114611fa35760008415611f91578287015190505b611f9b8582611f1d565b865550612003565b601f198416611fb1866118fa565b60005b82811015611fd957848901518255600182019150602085019450602081019050611fb4565b86831015611ff65784890151611ff2601f891682611eff565b8355505b6001600288020188555050505b505050505050565b600061201682611374565b915061202183611374565b9250828203905081811115612039576120386119a9565b5b92915050565b7f4f66666572206e6f7420666f756e640000000000000000000000000000000000600082015250565b6000612075600f83611757565b91506120808261203f565b602082019050919050565b600060208201905081810360008301526120a481612068565b9050919050565b7f596f7520617265206e6f7420746865206f66666572206f776e65720000000000600082015250565b60006120e1601b83611757565b91506120ec826120ab565b602082019050919050565b60006020820190508181036000830152612110816120d4565b905091905056fea2646970667358221220414ace9a988d20a46d798dfc57882e86423bcf3a00572cbc65f5a95aab23101864736f6c63430008130033",
  "immutableReferences": {},
  "source": "//SPDX-License-Identifier: MIT\r\npragma solidity ^0.8.0;\r\n\r\ncontract CapacityPool {\r\n    struct Offer {\r\n        // Id of the offer\r\n        string id;\r\n        // The entity that post an offer to the pool\r\n        address seller;\r\n        // Price for the offer\r\n        uint price;\r\n        //0 new offer, 1 - accepted, 2 - removed\r\n        uint state;\r\n        // The date when the offer expires\r\n        uint expiryTimestamp;\r\n        // The entity that accepted the offer\r\n        address buyer;\r\n    }\r\n\r\n    Offer[] public offers;\r\n\r\n    //Event for offer update\r\n    event OfferUpdated(Offer offer);\r\n\r\n    function isOfferUnique(string memory id) public view returns (bool){\r\n        for (uint i = 0; i < offers.length; i++) {\r\n            if (keccak256(abi.encodePacked(offers[i].id)) == keccak256(abi.encodePacked(id))) {\r\n                return false;\r\n            }\r\n        }\r\n        return true;\r\n    }\r\n\r\n    function addOffer(string memory id, uint price, uint expiryTimestamp) public returns (Offer memory){\r\n        //Check if id is unique\r\n        require(isOfferUnique(id), \"Offer id is not unique\");\r\n        //Check expiration date\r\n        require(expiryTimestamp > block.timestamp, \"Expiration date is in the past\");\r\n        offers.push(Offer(id, msg.sender, price, 0, expiryTimestamp, address(0)));\r\n        emit OfferUpdated(offers[offers.length - 1]);\r\n        return offers[offers.length - 1];\r\n    }\r\n\r\n    //Remove offer\r\n    function removeOffer(string memory offerId) public returns (bool){\r\n        //Get offer\r\n        uint offerIndex = getOfferIndex(offerId);\r\n        //Must be the offer owner\r\n        require(offers[offerIndex].seller == msg.sender, \"You are not the offer owner\");\r\n        //Check if offer is available\r\n        require(offers[offerIndex].state == 0, \"Offer is not available\");\r\n        //Check if offer is expired\r\n        require(offers[offerIndex].expiryTimestamp > block.timestamp, \"Offer is expired\");\r\n        offers[offerIndex].state = 2;\r\n        emit OfferUpdated(offers[offerIndex]);\r\n        return true;\r\n    }\r\n\r\n    //Find offer from offer id revert if not found\r\n    function getOffer(string memory offerId) public view returns (Offer memory){\r\n        for (uint i = 0; i < offers.length; i++) {\r\n            if (keccak256(abi.encodePacked(offers[i].id)) == keccak256(abi.encodePacked(offerId))) {\r\n                return offers[i];\r\n            }\r\n        }\r\n        revert(\"Offer not found\");\r\n    }\r\n\r\n    //Get offer index from id revert if not found\r\n    function getOfferIndex(string memory offerId) public view returns (uint){\r\n        for (uint i = 0; i < offers.length; i++) {\r\n            if (keccak256(abi.encodePacked(offers[i].id)) == keccak256(abi.encodePacked(offerId))) {\r\n                return i;\r\n            }\r\n        }\r\n        revert(\"Offer not found\");\r\n    }\r\n\r\n    function acceptOffer(string memory offerId) public returns (bool){\r\n        //Get offer\r\n        uint offerIndex = getOfferIndex(offerId);\r\n        //Check if offer is expired\r\n        require(offers[offerIndex].expiryTimestamp > block.timestamp, \"Offer is expired\");\r\n\r\n        //Check if offer is available\r\n        require(offers[offerIndex].state == 0, \"Offer is not available\");\r\n\r\n        offers[offerIndex].buyer = msg.sender;\r\n        offers[offerIndex].state = 1;\r\n\r\n        emit OfferUpdated(offers[offerIndex]);\r\n\r\n        return true;\r\n    }\r\n\r\n    //Get all offers\r\n    function getOffers() public view returns (Offer[] memory){\r\n        return offers;\r\n    }\r\n\r\n    function isExpired(string memory offerId) public view returns (bool){\r\n        return getOffer(offerId).expiryTimestamp < block.timestamp;\r\n    }\r\n\r\n    //Get offers length\r\n    function getOffersLength() public view returns (uint){\r\n        return offers.length;\r\n    }\r\n}",
  "sourcePath": "C:\\Users\\Marko\\Documents\\Projects\\shr-mfg-platforms-smart-contracts\\contracts\\CapacityPool.sol",
  "compiler": {
    "name": "solc",
    "version": "0.8.19+commit.7dd6d404.Emscripten.clang"
  },
  "schemaVersion": "3.4.15",
  "updatedAt": "2023-09-11T13:26:02.103Z",
  "devdoc": {
    "kind": "dev",
    "methods": {},
    "version": 1
  },
  "userdoc": {
    "kind": "user",
    "methods": {},
    "version": 1
  }
}