{
  "contractName": "ManufacturersPool",
  "abi": [
    {
      "inputs": [
        {
          "internalType": "uint256",
          "name": "",
          "type": "uint256"
        }
      ],
      "name": "offers",
      "outputs": [
        {
          "internalType": "string",
          "name": "id",
          "type": "string"
        },
        {
          "internalType": "address",
          "name": "client",
          "type": "address"
        },
        {
          "internalType": "uint256",
          "name": "price",
          "type": "uint256"
        },
        {
          "internalType": "uint256",
          "name": "state",
          "type": "uint256"
        },
        {
          "internalType": "uint256",
          "name": "endDate",
          "type": "uint256"
        },
        {
          "internalType": "address",
          "name": "manufacturer",
          "type": "address"
        }
      ],
      "stateMutability": "view",
      "type": "function",
      "constant": true
    },
    {
      "inputs": [
        {
          "internalType": "string",
          "name": "id",
          "type": "string"
        }
      ],
      "name": "isOfferUnique",
      "outputs": [
        {
          "internalType": "bool",
          "name": "",
          "type": "bool"
        }
      ],
      "stateMutability": "view",
      "type": "function",
      "constant": true
    },
    {
      "inputs": [
        {
          "internalType": "string",
          "name": "id",
          "type": "string"
        },
        {
          "internalType": "uint256",
          "name": "price",
          "type": "uint256"
        },
        {
          "internalType": "uint256",
          "name": "endDate",
          "type": "uint256"
        }
      ],
      "name": "addOffer",
      "outputs": [
        {
          "components": [
            {
              "internalType": "string",
              "name": "id",
              "type": "string"
            },
            {
              "internalType": "address",
              "name": "client",
              "type": "address"
            },
            {
              "internalType": "uint256",
              "name": "price",
              "type": "uint256"
            },
            {
              "internalType": "uint256",
              "name": "state",
              "type": "uint256"
            },
            {
              "internalType": "uint256",
              "name": "endDate",
              "type": "uint256"
            },
            {
              "internalType": "address",
              "name": "manufacturer",
              "type": "address"
            }
          ],
          "internalType": "struct ManufacturersPool.Offer",
          "name": "",
          "type": "tuple"
        }
      ],
      "stateMutability": "nonpayable",
      "type": "function"
    },
    {
      "inputs": [
        {
          "internalType": "string",
          "name": "offerId",
          "type": "string"
        }
      ],
      "name": "getOffer",
      "outputs": [
        {
          "components": [
            {
              "internalType": "string",
              "name": "id",
              "type": "string"
            },
            {
              "internalType": "address",
              "name": "client",
              "type": "address"
            },
            {
              "internalType": "uint256",
              "name": "price",
              "type": "uint256"
            },
            {
              "internalType": "uint256",
              "name": "state",
              "type": "uint256"
            },
            {
              "internalType": "uint256",
              "name": "endDate",
              "type": "uint256"
            },
            {
              "internalType": "address",
              "name": "manufacturer",
              "type": "address"
            }
          ],
          "internalType": "struct ManufacturersPool.Offer",
          "name": "",
          "type": "tuple"
        }
      ],
      "stateMutability": "view",
      "type": "function",
      "constant": true
    },
    {
      "inputs": [
        {
          "internalType": "string",
          "name": "offerId",
          "type": "string"
        }
      ],
      "name": "getOfferIndex",
      "outputs": [
        {
          "internalType": "uint256",
          "name": "",
          "type": "uint256"
        }
      ],
      "stateMutability": "view",
      "type": "function",
      "constant": true
    },
    {
      "inputs": [
        {
          "internalType": "string",
          "name": "offerId",
          "type": "string"
        }
      ],
      "name": "acceptOffer",
      "outputs": [
        {
          "internalType": "bool",
          "name": "",
          "type": "bool"
        }
      ],
      "stateMutability": "nonpayable",
      "type": "function"
    },
    {
      "inputs": [
        {
          "internalType": "string",
          "name": "offerId",
          "type": "string"
        }
      ],
      "name": "removeOffer",
      "outputs": [
        {
          "internalType": "bool",
          "name": "",
          "type": "bool"
        }
      ],
      "stateMutability": "nonpayable",
      "type": "function"
    },
    {
      "inputs": [],
      "name": "getOffers",
      "outputs": [
        {
          "components": [
            {
              "internalType": "string",
              "name": "id",
              "type": "string"
            },
            {
              "internalType": "address",
              "name": "client",
              "type": "address"
            },
            {
              "internalType": "uint256",
              "name": "price",
              "type": "uint256"
            },
            {
              "internalType": "uint256",
              "name": "state",
              "type": "uint256"
            },
            {
              "internalType": "uint256",
              "name": "endDate",
              "type": "uint256"
            },
            {
              "internalType": "address",
              "name": "manufacturer",
              "type": "address"
            }
          ],
          "internalType": "struct ManufacturersPool.Offer[]",
          "name": "",
          "type": "tuple[]"
        }
      ],
      "stateMutability": "view",
      "type": "function",
      "constant": true
    },
    {
      "inputs": [
        {
          "internalType": "string",
          "name": "offerId",
          "type": "string"
        }
      ],
      "name": "isExpired",
      "outputs": [
        {
          "internalType": "bool",
          "name": "",
          "type": "bool"
        }
      ],
      "stateMutability": "view",
      "type": "function",
      "constant": true
    },
    {
      "inputs": [],
      "name": "getOffersLength",
      "outputs": [
        {
          "internalType": "uint256",
          "name": "",
          "type": "uint256"
        }
      ],
      "stateMutability": "view",
      "type": "function",
      "constant": true
    }
  ],
  "bytecode": "0x608060405234801561001057600080fd5b50611d94806100206000396000f3fe608060405234801561001057600080fd5b506004361061009e5760003560e01c806346b342231161006657806346b342231461018157806373c2dc12146101b15780637a510116146101cf5780638a72ea6a146101ff578063c64fafbc146102345761009e565b806312da9374146100a357806314bd3d87146100d35780632bca94a9146101035780632dbad227146101335780633ee992ee14610163575b600080fd5b6100bd60048036038101906100b8919061110e565b610264565b6040516100ca9190611172565b60405180910390f35b6100ed60048036038101906100e8919061110e565b610318565b6040516100fa9190611172565b60405180910390f35b61011d600480360381019061011891906111c3565b61048d565b60405161012a919061138a565b60405180910390f35b61014d6004803603810190610148919061110e565b61080c565b60405161015a91906113bb565b60405180910390f35b61016b6108f5565b6040516101789190611521565b60405180910390f35b61019b6004803603810190610196919061110e565b610ab0565b6040516101a89190611172565b60405180910390f35b6101b9610ba6565b6040516101c691906113bb565b60405180910390f35b6101e960048036038101906101e4919061110e565b610bb2565b6040516101f6919061138a565b60405180910390f35b61021960048036038101906102149190611543565b610e26565b60405161022b969594939291906115c9565b60405180910390f35b61024e6004803603810190610249919061110e565b610f3a565b60405161025b9190611172565b60405180910390f35b600080600090505b60008054905081101561030d578260405160200161028a919061166d565b60405160208183030381529060405280519060200120600082815481106102b4576102b3611684565b5b90600052602060002090600602016000016040516020016102d591906117ab565b60405160208183030381529060405280519060200120036102fa576000915050610313565b8080610305906117f1565b91505061026c565b50600190505b919050565b6000806103248361080c565b9050426000828154811061033b5761033a611684565b5b9060005260206000209060060201600401541161038d576040517f08c379a000000000000000000000000000000000000000000000000000000000815260040161038490611885565b60405180910390fd5b60008082815481106103a2576103a1611684565b5b906000526020600020906006020160030154146103f4576040517f08c379a00000000000000000000000000000000000000000000000000000000081526004016103eb906118f1565b60405180910390fd5b336000828154811061040957610408611684565b5b906000526020600020906006020160050160006101000a81548173ffffffffffffffffffffffffffffffffffffffff021916908373ffffffffffffffffffffffffffffffffffffffff16021790555060016000828154811061046e5761046d611684565b5b9060005260206000209060060201600301819055506001915050919050565b610495610f52565b61049e84610264565b6104dd576040517f08c379a00000000000000000000000000000000000000000000000000000000081526004016104d49061195d565b60405180910390fd5b42821161051f576040517f08c379a0000000000000000000000000000000000000000000000000000000008152600401610516906119c9565b60405180910390fd5b60006040518060c001604052808681526020013373ffffffffffffffffffffffffffffffffffffffff16815260200185815260200160008152602001848152602001600073ffffffffffffffffffffffffffffffffffffffff16815250908060018154018082558091505060019003906000526020600020906006020160009091909190915060008201518160000190816105ba9190611b80565b5060208201518160010160006101000a81548173ffffffffffffffffffffffffffffffffffffffff021916908373ffffffffffffffffffffffffffffffffffffffff16021790555060408201518160020155606082015181600301556080820151816004015560a08201518160050160006101000a81548173ffffffffffffffffffffffffffffffffffffffff021916908373ffffffffffffffffffffffffffffffffffffffff16021790555050506000600160008054905061067d9190611c52565b8154811061068e5761068d611684565b5b90600052602060002090600602016040518060c00160405290816000820180546106b7906116e2565b80601f01602080910402602001604051908101604052809291908181526020018280546106e3906116e2565b80156107305780601f1061070557610100808354040283529160200191610730565b820191906000526020600020905b81548152906001019060200180831161071357829003601f168201915b505050505081526020016001820160009054906101000a900473ffffffffffffffffffffffffffffffffffffffff1673ffffffffffffffffffffffffffffffffffffffff1673ffffffffffffffffffffffffffffffffffffffff1681526020016002820154815260200160038201548152602001600482015481526020016005820160009054906101000a900473ffffffffffffffffffffffffffffffffffffffff1673ffffffffffffffffffffffffffffffffffffffff1673ffffffffffffffffffffffffffffffffffffffff168152505090509392505050565b600080600090505b6000805490508110156108b45782604051602001610832919061166d565b604051602081830303815290604052805190602001206000828154811061085c5761085b611684565b5b906000526020600020906006020160000160405160200161087d91906117ab565b60405160208183030381529060405280519060200120036108a157809150506108f0565b80806108ac906117f1565b915050610814565b506040517f08c379a00000000000000000000000000000000000000000000000000000000081526004016108e790611cd2565b60405180910390fd5b919050565b60606000805480602002602001604051908101604052809291908181526020016000905b82821015610aa757838290600052602060002090600602016040518060c001604052908160008201805461094c906116e2565b80601f0160208091040260200160405190810160405280929190818152602001828054610978906116e2565b80156109c55780601f1061099a576101008083540402835291602001916109c5565b820191906000526020600020905b8154815290600101906020018083116109a857829003601f168201915b505050505081526020016001820160009054906101000a900473ffffffffffffffffffffffffffffffffffffffff1673ffffffffffffffffffffffffffffffffffffffff1673ffffffffffffffffffffffffffffffffffffffff1681526020016002820154815260200160038201548152602001600482015481526020016005820160009054906101000a900473ffffffffffffffffffffffffffffffffffffffff1673ffffffffffffffffffffffffffffffffffffffff1673ffffffffffffffffffffffffffffffffffffffff168152505081526020019060010190610919565b50505050905090565b600080610abc8361080c565b90503373ffffffffffffffffffffffffffffffffffffffff1660008281548110610ae957610ae8611684565b5b906000526020600020906006020160010160009054906101000a900473ffffffffffffffffffffffffffffffffffffffff1673ffffffffffffffffffffffffffffffffffffffff1614610b71576040517f08c379a0000000000000000000000000000000000000000000000000000000008152600401610b6890611d3e565b60405180910390fd5b600260008281548110610b8757610b86611684565b5b9060005260206000209060060201600301819055506001915050919050565b60008080549050905090565b610bba610f52565b60005b600080549050811015610de55782604051602001610bdb919061166d565b6040516020818303038152906040528051906020012060008281548110610c0557610c04611684565b5b9060005260206000209060060201600001604051602001610c2691906117ab565b6040516020818303038152906040528051906020012003610dd25760008181548110610c5557610c54611684565b5b90600052602060002090600602016040518060c0016040529081600082018054610c7e906116e2565b80601f0160208091040260200160405190810160405280929190818152602001828054610caa906116e2565b8015610cf75780601f10610ccc57610100808354040283529160200191610cf7565b820191906000526020600020905b815481529060010190602001808311610cda57829003601f168201915b505050505081526020016001820160009054906101000a900473ffffffffffffffffffffffffffffffffffffffff1673ffffffffffffffffffffffffffffffffffffffff1673ffffffffffffffffffffffffffffffffffffffff1681526020016002820154815260200160038201548152602001600482015481526020016005820160009054906101000a900473ffffffffffffffffffffffffffffffffffffffff1673ffffffffffffffffffffffffffffffffffffffff1673ffffffffffffffffffffffffffffffffffffffff1681525050915050610e21565b8080610ddd906117f1565b915050610bbd565b506040517f08c379a0000000000000000000000000000000000000000000000000000000008152600401610e1890611cd2565b60405180910390fd5b919050565b60008181548110610e3657600080fd5b9060005260206000209060060201600091509050806000018054610e59906116e2565b80601f0160208091040260200160405190810160405280929190818152602001828054610e85906116e2565b8015610ed25780601f10610ea757610100808354040283529160200191610ed2565b820191906000526020600020905b815481529060010190602001808311610eb557829003601f168201915b5050505050908060010160009054906101000a900473ffffffffffffffffffffffffffffffffffffffff16908060020154908060030154908060040154908060050160009054906101000a900473ffffffffffffffffffffffffffffffffffffffff16905086565b600042610f4683610bb2565b60800151109050919050565b6040518060c0016040528060608152602001600073ffffffffffffffffffffffffffffffffffffffff168152602001600081526020016000815260200160008152602001600073ffffffffffffffffffffffffffffffffffffffff1681525090565b6000604051905090565b600080fd5b600080fd5b600080fd5b600080fd5b6000601f19601f8301169050919050565b7f4e487b7100000000000000000000000000000000000000000000000000000000600052604160045260246000fd5b61101b82610fd2565b810181811067ffffffffffffffff8211171561103a57611039610fe3565b5b80604052505050565b600061104d610fb4565b90506110598282611012565b919050565b600067ffffffffffffffff82111561107957611078610fe3565b5b61108282610fd2565b9050602081019050919050565b82818337600083830152505050565b60006110b16110ac8461105e565b611043565b9050828152602081018484840111156110cd576110cc610fcd565b5b6110d884828561108f565b509392505050565b600082601f8301126110f5576110f4610fc8565b5b813561110584826020860161109e565b91505092915050565b60006020828403121561112457611123610fbe565b5b600082013567ffffffffffffffff81111561114257611141610fc3565b5b61114e848285016110e0565b91505092915050565b60008115159050919050565b61116c81611157565b82525050565b60006020820190506111876000830184611163565b92915050565b6000819050919050565b6111a08161118d565b81146111ab57600080fd5b50565b6000813590506111bd81611197565b92915050565b6000806000606084860312156111dc576111db610fbe565b5b600084013567ffffffffffffffff8111156111fa576111f9610fc3565b5b611206868287016110e0565b9350506020611217868287016111ae565b9250506040611228868287016111ae565b9150509250925092565b600081519050919050565b600082825260208201905092915050565b60005b8381101561126c578082015181840152602081019050611251565b60008484015250505050565b600061128382611232565b61128d818561123d565b935061129d81856020860161124e565b6112a681610fd2565b840191505092915050565b600073ffffffffffffffffffffffffffffffffffffffff82169050919050565b60006112dc826112b1565b9050919050565b6112ec816112d1565b82525050565b6112fb8161118d565b82525050565b600060c083016000830151848203600086015261131e8282611278565b915050602083015161133360208601826112e3565b50604083015161134660408601826112f2565b50606083015161135960608601826112f2565b50608083015161136c60808601826112f2565b5060a083015161137f60a08601826112e3565b508091505092915050565b600060208201905081810360008301526113a48184611301565b905092915050565b6113b58161118d565b82525050565b60006020820190506113d060008301846113ac565b92915050565b600081519050919050565b600082825260208201905092915050565b6000819050602082019050919050565b600060c083016000830151848203600086015261141f8282611278565b915050602083015161143460208601826112e3565b50604083015161144760408601826112f2565b50606083015161145a60608601826112f2565b50608083015161146d60808601826112f2565b5060a083015161148060a08601826112e3565b508091505092915050565b60006114978383611402565b905092915050565b6000602082019050919050565b60006114b7826113d6565b6114c181856113e1565b9350836020820285016114d3856113f2565b8060005b8581101561150f57848403895281516114f0858261148b565b94506114fb8361149f565b925060208a019950506001810190506114d7565b50829750879550505050505092915050565b6000602082019050818103600083015261153b81846114ac565b905092915050565b60006020828403121561155957611558610fbe565b5b6000611567848285016111ae565b91505092915050565b600082825260208201905092915050565b600061158c82611232565b6115968185611570565b93506115a681856020860161124e565b6115af81610fd2565b840191505092915050565b6115c3816112d1565b82525050565b600060c08201905081810360008301526115e38189611581565b90506115f260208301886115ba565b6115ff60408301876113ac565b61160c60608301866113ac565b61161960808301856113ac565b61162660a08301846115ba565b979650505050505050565b600081905092915050565b600061164782611232565b6116518185611631565b935061166181856020860161124e565b80840191505092915050565b6000611679828461163c565b915081905092915050565b7f4e487b7100000000000000000000000000000000000000000000000000000000600052603260045260246000fd5b7f4e487b7100000000000000000000000000000000000000000000000000000000600052602260045260246000fd5b600060028204905060018216806116fa57607f821691505b60208210810361170d5761170c6116b3565b5b50919050565b60008190508160005260206000209050919050565b60008154611735816116e2565b61173f8186611631565b9450600182166000811461175a576001811461176f576117a2565b60ff19831686528115158202860193506117a2565b61177885611713565b60005b8381101561179a5781548189015260018201915060208101905061177b565b838801955050505b50505092915050565b60006117b78284611728565b915081905092915050565b7f4e487b7100000000000000000000000000000000000000000000000000000000600052601160045260246000fd5b60006117fc8261118d565b91507fffffffffffffffffffffffffffffffffffffffffffffffffffffffffffffffff820361182e5761182d6117c2565b5b600182019050919050565b7f4f66666572206973206578706972656400000000000000000000000000000000600082015250565b600061186f601083611570565b915061187a82611839565b602082019050919050565b6000602082019050818103600083015261189e81611862565b9050919050565b7f4f66666572206973206e6f7420617661696c61626c6500000000000000000000600082015250565b60006118db601683611570565b91506118e6826118a5565b602082019050919050565b6000602082019050818103600083015261190a816118ce565b9050919050565b7f4f66666572206964206973206e6f7420756e6971756500000000000000000000600082015250565b6000611947601683611570565b915061195282611911565b602082019050919050565b600060208201905081810360008301526119768161193a565b9050919050565b7f45787069726174696f6e206461746520697320696e2074686520706173740000600082015250565b60006119b3601e83611570565b91506119be8261197d565b602082019050919050565b600060208201905081810360008301526119e2816119a6565b9050919050565b60006020601f8301049050919050565b600082821b905092915050565b600060088302611a367fffffffffffffffffffffffffffffffffffffffffffffffffffffffffffffffff826119f9565b611a4086836119f9565b95508019841693508086168417925050509392505050565b6000819050919050565b6000611a7d611a78611a738461118d565b611a58565b61118d565b9050919050565b6000819050919050565b611a9783611a62565b611aab611aa382611a84565b848454611a06565b825550505050565b600090565b611ac0611ab3565b611acb818484611a8e565b505050565b5b81811015611aef57611ae4600082611ab8565b600181019050611ad1565b5050565b601f821115611b3457611b0581611713565b611b0e846119e9565b81016020851015611b1d578190505b611b31611b29856119e9565b830182611ad0565b50505b505050565b600082821c905092915050565b6000611b5760001984600802611b39565b1980831691505092915050565b6000611b708383611b46565b9150826002028217905092915050565b611b8982611232565b67ffffffffffffffff811115611ba257611ba1610fe3565b5b611bac82546116e2565b611bb7828285611af3565b600060209050601f831160018114611bea5760008415611bd8578287015190505b611be28582611b64565b865550611c4a565b601f198416611bf886611713565b60005b82811015611c2057848901518255600182019150602085019450602081019050611bfb565b86831015611c3d5784890151611c39601f891682611b46565b8355505b6001600288020188555050505b505050505050565b6000611c5d8261118d565b9150611c688361118d565b9250828203905081811115611c8057611c7f6117c2565b5b92915050565b7f4f66666572206e6f7420666f756e640000000000000000000000000000000000600082015250565b6000611cbc600f83611570565b9150611cc782611c86565b602082019050919050565b60006020820190508181036000830152611ceb81611caf565b9050919050565b7f596f7520617265206e6f7420746865206f66666572206f776e65720000000000600082015250565b6000611d28601b83611570565b9150611d3382611cf2565b602082019050919050565b60006020820190508181036000830152611d5781611d1b565b905091905056fea2646970667358221220cc6dd41480a8ccdbfb67462450c12126a0ac5073fef953681669266d117b0cd464736f6c63430008100033",
  "immutableReferences": {},
  "source": "//SPDX-License-Identifier: MIT\npragma solidity ^0.8.0;\n\ncontract ManufacturersPool {\n    struct Offer {\n        // Id of the offer\n        string id;\n        // The entity that post an offer to the pool\n        address client;\n        // Required price for the offer\n        uint price;\n        //0 new offer, 1 - accepted, 2 - removed\n        uint state;\n        uint endDate;\n        address manufacturer;\n    }\n\n    Offer[] public offers;\n\n    function isOfferUnique(string memory id) public view returns (bool){\n        for (uint i = 0; i < offers.length; i++) {\n            if (keccak256(abi.encodePacked(offers[i].id)) == keccak256(abi.encodePacked(id))) {\n                return false;\n            }\n        }\n        return true;\n    }\n\n    function addOffer(string memory id, uint price, uint endDate) public returns (Offer memory){\n        //Check if id is unique\n        require(isOfferUnique(id), \"Offer id is not unique\");\n        //Check expiration date\n        require(endDate > block.timestamp, \"Expiration date is in the past\");\n        offers.push(Offer(id, msg.sender, price, 0, endDate, address(0)));\n        return offers[offers.length - 1];\n    }\n\n    //Find offer from offer id revert if not found\n    function getOffer(string memory offerId) public view returns (Offer memory){\n        for (uint i = 0; i < offers.length; i++) {\n            if (keccak256(abi.encodePacked(offers[i].id)) == keccak256(abi.encodePacked(offerId))) {\n                return offers[i];\n            }\n        }\n        revert(\"Offer not found\");\n    }\n\n    //Get offer index from id revert if not found\n    function getOfferIndex(string memory offerId) public view returns (uint){\n        for (uint i = 0; i < offers.length; i++) {\n            if (keccak256(abi.encodePacked(offers[i].id)) == keccak256(abi.encodePacked(offerId))) {\n                return i;\n            }\n        }\n        revert(\"Offer not found\");\n    }\n\n    function acceptOffer(string memory offerId) public returns (bool){\n        //Get offer\n        uint offerIndex = getOfferIndex(offerId);\n        //Check if offer is expired\n        require(offers[offerIndex].endDate > block.timestamp, \"Offer is expired\");\n\n        //Check if offer is available\n        require(offers[offerIndex].state == 0, \"Offer is not available\");\n\n        offers[offerIndex].manufacturer = msg.sender;\n        offers[offerIndex].state = 1;\n        return true;\n    }\n\n    //Find offer that matches id and set state to 2\n    function removeOffer(string memory offerId) public returns (bool){\n        uint offerIndex = getOfferIndex(offerId);\n        //Must be the offer owner\n        require(offers[offerIndex].client == msg.sender, \"You are not the offer owner\");\n        offers[offerIndex].state = 2;\n        return true;\n    }\n\n    function getOffers() public view returns (Offer[] memory){\n        return offers;\n    }\n\n    function isExpired(string memory offerId) public view returns (bool){\n        return getOffer(offerId).endDate < block.timestamp;\n    }\n\n    //Get offers length\n    function getOffersLength() public view returns (uint){\n        return offers.length;\n    }\n}",
  "sourcePath": "/home/marko/Projects/SS22/smartContracts/contracts/ManufacturersPool.sol",
  "compiler": {
    "name": "solc",
    "version": "0.8.16+commit.07a7930e.Emscripten.clang"
  },
  "schemaVersion": "3.4.9",
  "updatedAt": "2022-09-23T07:10:35.308Z",
  "networkType": "ethereum",
  "devdoc": {
    "kind": "dev",
    "methods": {},
    "version": 1
  },
  "userdoc": {
    "kind": "user",
    "methods": {},
    "version": 1
  }
}