{
  "contractName": "ManufacturersPool",
  "abi": [
    {
      "inputs": [
        {
          "internalType": "uint256",
          "name": "",
          "type": "uint256"
        }
      ],
      "name": "offers",
      "outputs": [
        {
          "internalType": "string",
          "name": "id",
          "type": "string"
        },
        {
          "internalType": "address",
          "name": "poster",
          "type": "address"
        },
        {
          "internalType": "uint256",
          "name": "price",
          "type": "uint256"
        },
        {
          "internalType": "address",
          "name": "source",
          "type": "address"
        },
        {
          "internalType": "address",
          "name": "target",
          "type": "address"
        },
        {
          "internalType": "uint256",
          "name": "state",
          "type": "uint256"
        },
        {
          "internalType": "uint256",
          "name": "endDate",
          "type": "uint256"
        }
      ],
      "stateMutability": "view",
      "type": "function",
      "constant": true
    },
    {
      "inputs": [
        {
          "internalType": "string",
          "name": "id",
          "type": "string"
        }
      ],
      "name": "isOfferIdUnique",
      "outputs": [
        {
          "internalType": "bool",
          "name": "",
          "type": "bool"
        }
      ],
      "stateMutability": "view",
      "type": "function",
      "constant": true
    },
    {
      "inputs": [
        {
          "internalType": "string",
          "name": "id",
          "type": "string"
        },
        {
          "internalType": "uint256",
          "name": "price",
          "type": "uint256"
        },
        {
          "internalType": "address",
          "name": "source",
          "type": "address"
        },
        {
          "internalType": "address",
          "name": "target",
          "type": "address"
        },
        {
          "internalType": "uint256",
          "name": "endDate",
          "type": "uint256"
        }
      ],
      "name": "addOffer",
      "outputs": [
        {
          "components": [
            {
              "internalType": "string",
              "name": "id",
              "type": "string"
            },
            {
              "internalType": "address",
              "name": "poster",
              "type": "address"
            },
            {
              "internalType": "uint256",
              "name": "price",
              "type": "uint256"
            },
            {
              "internalType": "address",
              "name": "source",
              "type": "address"
            },
            {
              "internalType": "address",
              "name": "target",
              "type": "address"
            },
            {
              "internalType": "uint256",
              "name": "state",
              "type": "uint256"
            },
            {
              "internalType": "uint256",
              "name": "endDate",
              "type": "uint256"
            }
          ],
          "internalType": "struct ManufacturersPool.Offer",
          "name": "",
          "type": "tuple"
        }
      ],
      "stateMutability": "nonpayable",
      "type": "function"
    },
    {
      "inputs": [
        {
          "internalType": "string",
          "name": "offerId",
          "type": "string"
        }
      ],
      "name": "getOffer",
      "outputs": [
        {
          "components": [
            {
              "internalType": "string",
              "name": "id",
              "type": "string"
            },
            {
              "internalType": "address",
              "name": "poster",
              "type": "address"
            },
            {
              "internalType": "uint256",
              "name": "price",
              "type": "uint256"
            },
            {
              "internalType": "address",
              "name": "source",
              "type": "address"
            },
            {
              "internalType": "address",
              "name": "target",
              "type": "address"
            },
            {
              "internalType": "uint256",
              "name": "state",
              "type": "uint256"
            },
            {
              "internalType": "uint256",
              "name": "endDate",
              "type": "uint256"
            }
          ],
          "internalType": "struct ManufacturersPool.Offer",
          "name": "",
          "type": "tuple"
        }
      ],
      "stateMutability": "view",
      "type": "function",
      "constant": true
    },
    {
      "inputs": [
        {
          "internalType": "string",
          "name": "offerId",
          "type": "string"
        }
      ],
      "name": "acceptOffer",
      "outputs": [
        {
          "internalType": "bool",
          "name": "",
          "type": "bool"
        }
      ],
      "stateMutability": "nonpayable",
      "type": "function"
    },
    {
      "inputs": [
        {
          "internalType": "string",
          "name": "offerId",
          "type": "string"
        }
      ],
      "name": "removeOffer",
      "outputs": [
        {
          "internalType": "bool",
          "name": "",
          "type": "bool"
        }
      ],
      "stateMutability": "nonpayable",
      "type": "function"
    },
    {
      "inputs": [],
      "name": "getAllOffers",
      "outputs": [
        {
          "components": [
            {
              "internalType": "string",
              "name": "id",
              "type": "string"
            },
            {
              "internalType": "address",
              "name": "poster",
              "type": "address"
            },
            {
              "internalType": "uint256",
              "name": "price",
              "type": "uint256"
            },
            {
              "internalType": "address",
              "name": "source",
              "type": "address"
            },
            {
              "internalType": "address",
              "name": "target",
              "type": "address"
            },
            {
              "internalType": "uint256",
              "name": "state",
              "type": "uint256"
            },
            {
              "internalType": "uint256",
              "name": "endDate",
              "type": "uint256"
            }
          ],
          "internalType": "struct ManufacturersPool.Offer[]",
          "name": "",
          "type": "tuple[]"
        }
      ],
      "stateMutability": "view",
      "type": "function",
      "constant": true
    },
    {
      "inputs": [],
      "name": "getValidOffers",
      "outputs": [
        {
          "components": [
            {
              "internalType": "string",
              "name": "id",
              "type": "string"
            },
            {
              "internalType": "address",
              "name": "poster",
              "type": "address"
            },
            {
              "internalType": "uint256",
              "name": "price",
              "type": "uint256"
            },
            {
              "internalType": "address",
              "name": "source",
              "type": "address"
            },
            {
              "internalType": "address",
              "name": "target",
              "type": "address"
            },
            {
              "internalType": "uint256",
              "name": "state",
              "type": "uint256"
            },
            {
              "internalType": "uint256",
              "name": "endDate",
              "type": "uint256"
            }
          ],
          "internalType": "struct ManufacturersPool.Offer[]",
          "name": "",
          "type": "tuple[]"
        }
      ],
      "stateMutability": "view",
      "type": "function",
      "constant": true
    }
  ],
  "bytecode": "0x608060405234801561001057600080fd5b50611ef5806100206000396000f3fe608060405234801561001057600080fd5b50600436106100885760003560e01c80637a5101161161005b5780637a5101161461014d5780638a72ea6a1461017d578063a1655278146101b3578063a59e1a73146101d157610088565b806314bd3d871461008d57806322333052146100bd5780634046fe31146100ed57806346b342231461011d575b600080fd5b6100a760048036038101906100a2919061126e565b6101ef565b6040516100b491906112d2565b60405180910390f35b6100d760048036038101906100d2919061126e565b6102d7565b6040516100e491906112d2565b60405180910390f35b61010760048036038101906101029190611381565b61038b565b6040516101149190611551565b60405180910390f35b6101376004803603810190610132919061126e565b6107c4565b60405161014491906112d2565b60405180910390f35b6101676004803603810190610162919061126e565b6107e7565b6040516101749190611551565b60405180910390f35b61019760048036038101906101929190611573565b610ab1565b6040516101aa9796959493929190611608565b60405180910390f35b6101bb610beb565b6040516101c891906117dc565b60405180910390f35b6101d9610dfc565b6040516101e691906117dc565b60405180910390f35b6000806101fb836107e7565b9050428160c0015111610243576040517f08c379a000000000000000000000000000000000000000000000000000000000815260040161023a9061184a565b60405180910390fd5b60008160a001511461028a576040517f08c379a0000000000000000000000000000000000000000000000000000000008152600401610281906118b6565b60405180910390fd5b33816080019073ffffffffffffffffffffffffffffffffffffffff16908173ffffffffffffffffffffffffffffffffffffffff168152505060018160a00181815250506001915050919050565b600080600090505b60008054905081101561038057826040516020016102fd9190611912565b604051602081830303815290604052805190602001206000828154811061032757610326611929565b5b90600052602060002090600702016000016040516020016103489190611a50565b604051602081830303815290604052805190602001200361036d576000915050610386565b808061037890611a96565b9150506102df565b50600190505b919050565b610393611095565b61039c866102d7565b6103db576040517f08c379a00000000000000000000000000000000000000000000000000000000081526004016103d290611b2a565b60405180910390fd5b42821161041d576040517f08c379a000000000000000000000000000000000000000000000000000000000815260040161041490611b96565b60405180910390fd5b60006040518060e001604052808881526020013373ffffffffffffffffffffffffffffffffffffffff1681526020018781526020018673ffffffffffffffffffffffffffffffffffffffff1681526020018573ffffffffffffffffffffffffffffffffffffffff1681526020016000815260200184815250908060018154018082558091505060019003906000526020600020906007020160009091909190915060008201518160000190816104d39190611d4d565b5060208201518160010160006101000a81548173ffffffffffffffffffffffffffffffffffffffff021916908373ffffffffffffffffffffffffffffffffffffffff1602179055506040820151816002015560608201518160030160006101000a81548173ffffffffffffffffffffffffffffffffffffffff021916908373ffffffffffffffffffffffffffffffffffffffff16021790555060808201518160040160006101000a81548173ffffffffffffffffffffffffffffffffffffffff021916908373ffffffffffffffffffffffffffffffffffffffff16021790555060a0820151816005015560c082015181600601555050600060016000805490506105dd9190611e1f565b815481106105ee576105ed611929565b5b90600052602060002090600702016040518060e001604052908160008201805461061790611987565b80601f016020809104026020016040519081016040528092919081815260200182805461064390611987565b80156106905780601f1061066557610100808354040283529160200191610690565b820191906000526020600020905b81548152906001019060200180831161067357829003601f168201915b505050505081526020016001820160009054906101000a900473ffffffffffffffffffffffffffffffffffffffff1673ffffffffffffffffffffffffffffffffffffffff1673ffffffffffffffffffffffffffffffffffffffff168152602001600282015481526020016003820160009054906101000a900473ffffffffffffffffffffffffffffffffffffffff1673ffffffffffffffffffffffffffffffffffffffff1673ffffffffffffffffffffffffffffffffffffffff1681526020016004820160009054906101000a900473ffffffffffffffffffffffffffffffffffffffff1673ffffffffffffffffffffffffffffffffffffffff1673ffffffffffffffffffffffffffffffffffffffff16815260200160058201548152602001600682015481525050905095945050505050565b6000806107d0836107e7565b905060028160a00181815250506001915050919050565b6107ef611095565b60005b600080549050811015610a7057826040516020016108109190611912565b604051602081830303815290604052805190602001206000828154811061083a57610839611929565b5b906000526020600020906007020160000160405160200161085b9190611a50565b6040516020818303038152906040528051906020012003610a5d576000818154811061088a57610889611929565b5b90600052602060002090600702016040518060e00160405290816000820180546108b390611987565b80601f01602080910402602001604051908101604052809291908181526020018280546108df90611987565b801561092c5780601f106109015761010080835404028352916020019161092c565b820191906000526020600020905b81548152906001019060200180831161090f57829003601f168201915b505050505081526020016001820160009054906101000a900473ffffffffffffffffffffffffffffffffffffffff1673ffffffffffffffffffffffffffffffffffffffff1673ffffffffffffffffffffffffffffffffffffffff168152602001600282015481526020016003820160009054906101000a900473ffffffffffffffffffffffffffffffffffffffff1673ffffffffffffffffffffffffffffffffffffffff1673ffffffffffffffffffffffffffffffffffffffff1681526020016004820160009054906101000a900473ffffffffffffffffffffffffffffffffffffffff1673ffffffffffffffffffffffffffffffffffffffff1673ffffffffffffffffffffffffffffffffffffffff16815260200160058201548152602001600682015481525050915050610aac565b8080610a6890611a96565b9150506107f2565b506040517f08c379a0000000000000000000000000000000000000000000000000000000008152600401610aa390611e9f565b60405180910390fd5b919050565b60008181548110610ac157600080fd5b9060005260206000209060070201600091509050806000018054610ae490611987565b80601f0160208091040260200160405190810160405280929190818152602001828054610b1090611987565b8015610b5d5780601f10610b3257610100808354040283529160200191610b5d565b820191906000526020600020905b815481529060010190602001808311610b4057829003601f168201915b5050505050908060010160009054906101000a900473ffffffffffffffffffffffffffffffffffffffff16908060020154908060030160009054906101000a900473ffffffffffffffffffffffffffffffffffffffff16908060040160009054906101000a900473ffffffffffffffffffffffffffffffffffffffff16908060050154908060060154905087565b60606000805480602002602001604051908101604052809291908181526020016000905b82821015610df357838290600052602060002090600702016040518060e0016040529081600082018054610c4290611987565b80601f0160208091040260200160405190810160405280929190818152602001828054610c6e90611987565b8015610cbb5780601f10610c9057610100808354040283529160200191610cbb565b820191906000526020600020905b815481529060010190602001808311610c9e57829003601f168201915b505050505081526020016001820160009054906101000a900473ffffffffffffffffffffffffffffffffffffffff1673ffffffffffffffffffffffffffffffffffffffff1673ffffffffffffffffffffffffffffffffffffffff168152602001600282015481526020016003820160009054906101000a900473ffffffffffffffffffffffffffffffffffffffff1673ffffffffffffffffffffffffffffffffffffffff1673ffffffffffffffffffffffffffffffffffffffff1681526020016004820160009054906101000a900473ffffffffffffffffffffffffffffffffffffffff1673ffffffffffffffffffffffffffffffffffffffff1673ffffffffffffffffffffffffffffffffffffffff1681526020016005820154815260200160068201548152505081526020019060010190610c0f565b50505050905090565b6060806000805b60008054905081101561108c574260008281548110610e2557610e24611929565b5b906000526020600020906007020160060154118015610e6857506000808281548110610e5457610e53611929565b5b906000526020600020906007020160050154145b156110795760008181548110610e8157610e80611929565b5b90600052602060002090600702016040518060e0016040529081600082018054610eaa90611987565b80601f0160208091040260200160405190810160405280929190818152602001828054610ed690611987565b8015610f235780601f10610ef857610100808354040283529160200191610f23565b820191906000526020600020905b815481529060010190602001808311610f0657829003601f168201915b505050505081526020016001820160009054906101000a900473ffffffffffffffffffffffffffffffffffffffff1673ffffffffffffffffffffffffffffffffffffffff1673ffffffffffffffffffffffffffffffffffffffff168152602001600282015481526020016003820160009054906101000a900473ffffffffffffffffffffffffffffffffffffffff1673ffffffffffffffffffffffffffffffffffffffff1673ffffffffffffffffffffffffffffffffffffffff1681526020016004820160009054906101000a900473ffffffffffffffffffffffffffffffffffffffff1673ffffffffffffffffffffffffffffffffffffffff1673ffffffffffffffffffffffffffffffffffffffff1681526020016005820154815260200160068201548152505083838151811061105f5761105e611929565b5b6020026020010181905250818061107590611a96565b9250505b808061108490611a96565b915050610e03565b50819250505090565b6040518060e0016040528060608152602001600073ffffffffffffffffffffffffffffffffffffffff16815260200160008152602001600073ffffffffffffffffffffffffffffffffffffffff168152602001600073ffffffffffffffffffffffffffffffffffffffff16815260200160008152602001600081525090565b6000604051905090565b600080fd5b600080fd5b600080fd5b600080fd5b6000601f19601f8301169050919050565b7f4e487b7100000000000000000000000000000000000000000000000000000000600052604160045260246000fd5b61117b82611132565b810181811067ffffffffffffffff8211171561119a57611199611143565b5b80604052505050565b60006111ad611114565b90506111b98282611172565b919050565b600067ffffffffffffffff8211156111d9576111d8611143565b5b6111e282611132565b9050602081019050919050565b82818337600083830152505050565b600061121161120c846111be565b6111a3565b90508281526020810184848401111561122d5761122c61112d565b5b6112388482856111ef565b509392505050565b600082601f83011261125557611254611128565b5b81356112658482602086016111fe565b91505092915050565b6000602082840312156112845761128361111e565b5b600082013567ffffffffffffffff8111156112a2576112a1611123565b5b6112ae84828501611240565b91505092915050565b60008115159050919050565b6112cc816112b7565b82525050565b60006020820190506112e760008301846112c3565b92915050565b6000819050919050565b611300816112ed565b811461130b57600080fd5b50565b60008135905061131d816112f7565b92915050565b600073ffffffffffffffffffffffffffffffffffffffff82169050919050565b600061134e82611323565b9050919050565b61135e81611343565b811461136957600080fd5b50565b60008135905061137b81611355565b92915050565b600080600080600060a0868803121561139d5761139c61111e565b5b600086013567ffffffffffffffff8111156113bb576113ba611123565b5b6113c788828901611240565b95505060206113d88882890161130e565b94505060406113e98882890161136c565b93505060606113fa8882890161136c565b925050608061140b8882890161130e565b9150509295509295909350565b600081519050919050565b600082825260208201905092915050565b60005b83811015611452578082015181840152602081019050611437565b60008484015250505050565b600061146982611418565b6114738185611423565b9350611483818560208601611434565b61148c81611132565b840191505092915050565b6114a081611343565b82525050565b6114af816112ed565b82525050565b600060e08301600083015184820360008601526114d2828261145e565b91505060208301516114e76020860182611497565b5060408301516114fa60408601826114a6565b50606083015161150d6060860182611497565b5060808301516115206080860182611497565b5060a083015161153360a08601826114a6565b5060c083015161154660c08601826114a6565b508091505092915050565b6000602082019050818103600083015261156b81846114b5565b905092915050565b6000602082840312156115895761158861111e565b5b60006115978482850161130e565b91505092915050565b600082825260208201905092915050565b60006115bc82611418565b6115c681856115a0565b93506115d6818560208601611434565b6115df81611132565b840191505092915050565b6115f381611343565b82525050565b611602816112ed565b82525050565b600060e0820190508181036000830152611622818a6115b1565b905061163160208301896115ea565b61163e60408301886115f9565b61164b60608301876115ea565b61165860808301866115ea565b61166560a08301856115f9565b61167260c08301846115f9565b98975050505050505050565b600081519050919050565b600082825260208201905092915050565b6000819050602082019050919050565b600060e08301600083015184820360008601526116c7828261145e565b91505060208301516116dc6020860182611497565b5060408301516116ef60408601826114a6565b5060608301516117026060860182611497565b5060808301516117156080860182611497565b5060a083015161172860a08601826114a6565b5060c083015161173b60c08601826114a6565b508091505092915050565b600061175283836116aa565b905092915050565b6000602082019050919050565b60006117728261167e565b61177c8185611689565b93508360208202850161178e8561169a565b8060005b858110156117ca57848403895281516117ab8582611746565b94506117b68361175a565b925060208a01995050600181019050611792565b50829750879550505050505092915050565b600060208201905081810360008301526117f68184611767565b905092915050565b7f4f66666572206973206578706972656400000000000000000000000000000000600082015250565b60006118346010836115a0565b915061183f826117fe565b602082019050919050565b6000602082019050818103600083015261186381611827565b9050919050565b7f4f66666572206973206e6f7420617661696c61626c6500000000000000000000600082015250565b60006118a06016836115a0565b91506118ab8261186a565b602082019050919050565b600060208201905081810360008301526118cf81611893565b9050919050565b600081905092915050565b60006118ec82611418565b6118f681856118d6565b9350611906818560208601611434565b80840191505092915050565b600061191e82846118e1565b915081905092915050565b7f4e487b7100000000000000000000000000000000000000000000000000000000600052603260045260246000fd5b7f4e487b7100000000000000000000000000000000000000000000000000000000600052602260045260246000fd5b6000600282049050600182168061199f57607f821691505b6020821081036119b2576119b1611958565b5b50919050565b60008190508160005260206000209050919050565b600081546119da81611987565b6119e481866118d6565b945060018216600081146119ff5760018114611a1457611a47565b60ff1983168652811515820286019350611a47565b611a1d856119b8565b60005b83811015611a3f57815481890152600182019150602081019050611a20565b838801955050505b50505092915050565b6000611a5c82846119cd565b915081905092915050565b7f4e487b7100000000000000000000000000000000000000000000000000000000600052601160045260246000fd5b6000611aa1826112ed565b91507fffffffffffffffffffffffffffffffffffffffffffffffffffffffffffffffff8203611ad357611ad2611a67565b5b600182019050919050565b7f4f66666572206964206973206e6f7420756e6971756500000000000000000000600082015250565b6000611b146016836115a0565b9150611b1f82611ade565b602082019050919050565b60006020820190508181036000830152611b4381611b07565b9050919050565b7f45787069726174696f6e206461746520697320696e2074686520706173740000600082015250565b6000611b80601e836115a0565b9150611b8b82611b4a565b602082019050919050565b60006020820190508181036000830152611baf81611b73565b9050919050565b60006020601f8301049050919050565b600082821b905092915050565b600060088302611c037fffffffffffffffffffffffffffffffffffffffffffffffffffffffffffffffff82611bc6565b611c0d8683611bc6565b95508019841693508086168417925050509392505050565b6000819050919050565b6000611c4a611c45611c40846112ed565b611c25565b6112ed565b9050919050565b6000819050919050565b611c6483611c2f565b611c78611c7082611c51565b848454611bd3565b825550505050565b600090565b611c8d611c80565b611c98818484611c5b565b505050565b5b81811015611cbc57611cb1600082611c85565b600181019050611c9e565b5050565b601f821115611d0157611cd2816119b8565b611cdb84611bb6565b81016020851015611cea578190505b611cfe611cf685611bb6565b830182611c9d565b50505b505050565b600082821c905092915050565b6000611d2460001984600802611d06565b1980831691505092915050565b6000611d3d8383611d13565b9150826002028217905092915050565b611d5682611418565b67ffffffffffffffff811115611d6f57611d6e611143565b5b611d798254611987565b611d84828285611cc0565b600060209050601f831160018114611db75760008415611da5578287015190505b611daf8582611d31565b865550611e17565b601f198416611dc5866119b8565b60005b82811015611ded57848901518255600182019150602085019450602081019050611dc8565b86831015611e0a5784890151611e06601f891682611d13565b8355505b6001600288020188555050505b505050505050565b6000611e2a826112ed565b9150611e35836112ed565b9250828203905081811115611e4d57611e4c611a67565b5b92915050565b7f4f66666572206e6f7420666f756e640000000000000000000000000000000000600082015250565b6000611e89600f836115a0565b9150611e9482611e53565b602082019050919050565b60006020820190508181036000830152611eb881611e7c565b905091905056fea2646970667358221220fb5061c2f4781f65ca3f2bc4ca1afd76fa33eca0a3e381f7ffab9e6b11c9e79b64736f6c63430008100033",
  "immutableReferences": {},
  "source": "//SPDX-License-Identifier: MIT\npragma solidity ^0.8.0;\n\ncontract ManufacturersPool {\n    struct Offer {\n        // Id of the offer\n        string id;\n        // The entity that post an offer to the pool\n        address poster;\n        // Required price for the offer\n        uint price;\n        //Location of the package for pickup\n        address source;\n        //Location of the package for delivery\n        address target;\n        //0 new offer, 1 - accepted, 2 - expired, 3 - removed\n        uint state;\n        uint endDate;\n    }\n\n    Offer[] public offers;\n\n    function isOfferIdUnique(string memory id) public view returns (bool){\n        for (uint i = 0; i < offers.length; i++) {\n            if (keccak256(abi.encodePacked(offers[i].id)) == keccak256(abi.encodePacked(id))) {\n                return false;\n            }\n        }\n        return true;\n    }\n\n    function addOffer(string memory id, uint price, address source, address target, uint endDate) public returns (Offer memory){\n        //Check if id is unique\n        require(isOfferIdUnique(id), \"Offer id is not unique\");\n        //Check expiration date\n        require(endDate > block.timestamp, \"Expiration date is in the past\");\n        offers.push(Offer(id, msg.sender, price, source, target, 0, endDate));\n        return offers[offers.length - 1];\n    }\n\n    //Find offer from offer id revert if not found\n    function getOffer(string memory offerId) public view returns (Offer memory){\n        for (uint i = 0; i < offers.length; i++) {\n            if (keccak256(abi.encodePacked(offers[i].id)) == keccak256(abi.encodePacked(offerId))) {\n                return offers[i];\n            }\n        }\n        revert(\"Offer not found\");\n    }\n\n    function acceptOffer(string memory offerId) public returns (bool){\n        //Get offer\n        Offer memory offer = getOffer(offerId);\n        //Check if offer is expired\n        require(offer.endDate > block.timestamp, \"Offer is expired\");\n\n        //Check if offer is available\n        require(offer.state == 0, \"Offer is not available\");\n\n        offer.target = msg.sender;\n        offer.state = 1;\n        return true;\n    }\n\n    //Find offer that matches id and set state to 2\n    function removeOffer(string memory offerId) public returns (bool){\n        Offer memory offer = getOffer(offerId);\n        offer.state = 2;\n        return true;\n    }\n\n    function getAllOffers() public view returns (Offer[] memory){\n        return offers;\n    }\n\n    function getValidOffers() public view returns (Offer[] memory){\n        Offer[] memory validOffers;\n        uint j=0;\n        for (uint i = 0; i < offers.length; i++) {\n            if (offers[i].endDate > block.timestamp && offers[i].state == 0) {\n                validOffers[j]=offers[i];\n                j++;\n            }\n        }\n        return validOffers;\n    }\n}",
  "sourcePath": "/home/marko/Projects/SS22/smartContracts/contracts/ManufacturersPool.sol",
  "compiler": {
    "name": "solc",
    "version": "0.8.16+commit.07a7930e.Emscripten.clang"
  },
  "schemaVersion": "3.4.9",
  "updatedAt": "2022-09-15T11:37:27.017Z",
  "networkType": "ethereum",
  "devdoc": {
    "kind": "dev",
    "methods": {},
    "version": 1
  },
  "userdoc": {
    "kind": "user",
    "methods": {},
    "version": 1
  }
}