{
  "contractName": "ManufacturersPool",
  "abi": [
    {
      "inputs": [
        {
          "internalType": "uint256",
          "name": "",
          "type": "uint256"
        }
      ],
      "name": "offers",
      "outputs": [
        {
          "internalType": "string",
          "name": "id",
          "type": "string"
        },
        {
          "internalType": "address",
          "name": "client",
          "type": "address"
        },
        {
          "internalType": "uint256",
          "name": "price",
          "type": "uint256"
        },
        {
          "internalType": "uint256",
          "name": "state",
          "type": "uint256"
        },
        {
          "internalType": "uint256",
          "name": "endDate",
          "type": "uint256"
        },
        {
          "internalType": "address",
          "name": "manufacturer",
          "type": "address"
        }
      ],
      "stateMutability": "view",
      "type": "function",
      "constant": true
    },
    {
      "inputs": [
        {
          "internalType": "string",
          "name": "id",
          "type": "string"
        }
      ],
      "name": "isOfferUnique",
      "outputs": [
        {
          "internalType": "bool",
          "name": "",
          "type": "bool"
        }
      ],
      "stateMutability": "view",
      "type": "function",
      "constant": true
    },
    {
      "inputs": [
        {
          "internalType": "string",
          "name": "id",
          "type": "string"
        },
        {
          "internalType": "uint256",
          "name": "price",
          "type": "uint256"
        },
        {
          "internalType": "uint256",
          "name": "endDate",
          "type": "uint256"
        }
      ],
      "name": "addOffer",
      "outputs": [
        {
          "components": [
            {
              "internalType": "string",
              "name": "id",
              "type": "string"
            },
            {
              "internalType": "address",
              "name": "client",
              "type": "address"
            },
            {
              "internalType": "uint256",
              "name": "price",
              "type": "uint256"
            },
            {
              "internalType": "uint256",
              "name": "state",
              "type": "uint256"
            },
            {
              "internalType": "uint256",
              "name": "endDate",
              "type": "uint256"
            },
            {
              "internalType": "address",
              "name": "manufacturer",
              "type": "address"
            }
          ],
          "internalType": "struct ManufacturersPool.Offer",
          "name": "",
          "type": "tuple"
        }
      ],
      "stateMutability": "nonpayable",
      "type": "function"
    },
    {
      "inputs": [
        {
          "internalType": "string",
          "name": "offerId",
          "type": "string"
        }
      ],
      "name": "getOffer",
      "outputs": [
        {
          "components": [
            {
              "internalType": "string",
              "name": "id",
              "type": "string"
            },
            {
              "internalType": "address",
              "name": "client",
              "type": "address"
            },
            {
              "internalType": "uint256",
              "name": "price",
              "type": "uint256"
            },
            {
              "internalType": "uint256",
              "name": "state",
              "type": "uint256"
            },
            {
              "internalType": "uint256",
              "name": "endDate",
              "type": "uint256"
            },
            {
              "internalType": "address",
              "name": "manufacturer",
              "type": "address"
            }
          ],
          "internalType": "struct ManufacturersPool.Offer",
          "name": "",
          "type": "tuple"
        }
      ],
      "stateMutability": "view",
      "type": "function",
      "constant": true
    },
    {
      "inputs": [
        {
          "internalType": "string",
          "name": "offerId",
          "type": "string"
        }
      ],
      "name": "acceptOffer",
      "outputs": [
        {
          "internalType": "bool",
          "name": "",
          "type": "bool"
        }
      ],
      "stateMutability": "nonpayable",
      "type": "function"
    },
    {
      "inputs": [
        {
          "internalType": "string",
          "name": "offerId",
          "type": "string"
        }
      ],
      "name": "removeOffer",
      "outputs": [
        {
          "internalType": "bool",
          "name": "",
          "type": "bool"
        }
      ],
      "stateMutability": "nonpayable",
      "type": "function"
    },
    {
      "inputs": [],
      "name": "getOffers",
      "outputs": [
        {
          "components": [
            {
              "internalType": "string",
              "name": "id",
              "type": "string"
            },
            {
              "internalType": "address",
              "name": "client",
              "type": "address"
            },
            {
              "internalType": "uint256",
              "name": "price",
              "type": "uint256"
            },
            {
              "internalType": "uint256",
              "name": "state",
              "type": "uint256"
            },
            {
              "internalType": "uint256",
              "name": "endDate",
              "type": "uint256"
            },
            {
              "internalType": "address",
              "name": "manufacturer",
              "type": "address"
            }
          ],
          "internalType": "struct ManufacturersPool.Offer[]",
          "name": "",
          "type": "tuple[]"
        }
      ],
      "stateMutability": "view",
      "type": "function",
      "constant": true
    },
    {
      "inputs": [
        {
          "internalType": "string",
          "name": "offerId",
          "type": "string"
        }
      ],
      "name": "isExpired",
      "outputs": [
        {
          "internalType": "bool",
          "name": "",
          "type": "bool"
        }
      ],
      "stateMutability": "view",
      "type": "function",
      "constant": true
    }
  ],
  "bytecode": "0x608060405234801561001057600080fd5b50611b3b806100206000396000f3fe608060405234801561001057600080fd5b50600436106100885760003560e01c806346b342231161005b57806346b342231461013b5780637a5101161461016b5780638a72ea6a1461019b578063c64fafbc146101d057610088565b806312da93741461008d57806314bd3d87146100bd5780632bca94a9146100ed5780633ee992ee1461011d575b600080fd5b6100a760048036038101906100a29190610ed0565b610200565b6040516100b49190610f34565b60405180910390f35b6100d760048036038101906100d29190610ed0565b6102b4565b6040516100e49190610f34565b60405180910390f35b61010760048036038101906101029190610f85565b61039c565b604051610114919061114c565b60405180910390f35b61012561071b565b60405161013291906112b9565b60405180910390f35b61015560048036038101906101509190610ed0565b6108d6565b6040516101629190610f34565b60405180910390f35b61018560048036038101906101809190610ed0565b610974565b604051610192919061114c565b60405180910390f35b6101b560048036038101906101b091906112db565b610be8565b6040516101c796959493929190611370565b60405180910390f35b6101ea60048036038101906101e59190610ed0565b610cfc565b6040516101f79190610f34565b60405180910390f35b600080600090505b6000805490508110156102a957826040516020016102269190611414565b60405160208183030381529060405280519060200120600082815481106102505761024f61142b565b5b90600052602060002090600602016000016040516020016102719190611552565b60405160208183030381529060405280519060200120036102965760009150506102af565b80806102a190611598565b915050610208565b50600190505b919050565b6000806102c083610974565b905042816080015111610308576040517f08c379a00000000000000000000000000000000000000000000000000000000081526004016102ff9061162c565b60405180910390fd5b600081606001510361034f576040517f08c379a000000000000000000000000000000000000000000000000000000000815260040161034690611698565b60405180910390fd5b338160a0019073ffffffffffffffffffffffffffffffffffffffff16908173ffffffffffffffffffffffffffffffffffffffff168152505060018160600181815250506001915050919050565b6103a4610d14565b6103ad84610200565b6103ec576040517f08c379a00000000000000000000000000000000000000000000000000000000081526004016103e390611704565b60405180910390fd5b42821161042e576040517f08c379a000000000000000000000000000000000000000000000000000000000815260040161042590611770565b60405180910390fd5b60006040518060c001604052808681526020013373ffffffffffffffffffffffffffffffffffffffff16815260200185815260200160008152602001848152602001600073ffffffffffffffffffffffffffffffffffffffff16815250908060018154018082558091505060019003906000526020600020906006020160009091909190915060008201518160000190816104c99190611927565b5060208201518160010160006101000a81548173ffffffffffffffffffffffffffffffffffffffff021916908373ffffffffffffffffffffffffffffffffffffffff16021790555060408201518160020155606082015181600301556080820151816004015560a08201518160050160006101000a81548173ffffffffffffffffffffffffffffffffffffffff021916908373ffffffffffffffffffffffffffffffffffffffff16021790555050506000600160008054905061058c91906119f9565b8154811061059d5761059c61142b565b5b90600052602060002090600602016040518060c00160405290816000820180546105c690611489565b80601f01602080910402602001604051908101604052809291908181526020018280546105f290611489565b801561063f5780601f106106145761010080835404028352916020019161063f565b820191906000526020600020905b81548152906001019060200180831161062257829003601f168201915b505050505081526020016001820160009054906101000a900473ffffffffffffffffffffffffffffffffffffffff1673ffffffffffffffffffffffffffffffffffffffff1673ffffffffffffffffffffffffffffffffffffffff1681526020016002820154815260200160038201548152602001600482015481526020016005820160009054906101000a900473ffffffffffffffffffffffffffffffffffffffff1673ffffffffffffffffffffffffffffffffffffffff1673ffffffffffffffffffffffffffffffffffffffff168152505090509392505050565b60606000805480602002602001604051908101604052809291908181526020016000905b828210156108cd57838290600052602060002090600602016040518060c001604052908160008201805461077290611489565b80601f016020809104026020016040519081016040528092919081815260200182805461079e90611489565b80156107eb5780601f106107c0576101008083540402835291602001916107eb565b820191906000526020600020905b8154815290600101906020018083116107ce57829003601f168201915b505050505081526020016001820160009054906101000a900473ffffffffffffffffffffffffffffffffffffffff1673ffffffffffffffffffffffffffffffffffffffff1673ffffffffffffffffffffffffffffffffffffffff1681526020016002820154815260200160038201548152602001600482015481526020016005820160009054906101000a900473ffffffffffffffffffffffffffffffffffffffff1673ffffffffffffffffffffffffffffffffffffffff1673ffffffffffffffffffffffffffffffffffffffff16815250508152602001906001019061073f565b50505050905090565b60003373ffffffffffffffffffffffffffffffffffffffff166108f883610974565b6020015173ffffffffffffffffffffffffffffffffffffffff1614610952576040517f08c379a000000000000000000000000000000000000000000000000000000000815260040161094990611a79565b60405180910390fd5b600061095d83610974565b905060028160600181815250506001915050919050565b61097c610d14565b60005b600080549050811015610ba7578260405160200161099d9190611414565b60405160208183030381529060405280519060200120600082815481106109c7576109c661142b565b5b90600052602060002090600602016000016040516020016109e89190611552565b6040516020818303038152906040528051906020012003610b945760008181548110610a1757610a1661142b565b5b90600052602060002090600602016040518060c0016040529081600082018054610a4090611489565b80601f0160208091040260200160405190810160405280929190818152602001828054610a6c90611489565b8015610ab95780601f10610a8e57610100808354040283529160200191610ab9565b820191906000526020600020905b815481529060010190602001808311610a9c57829003601f168201915b505050505081526020016001820160009054906101000a900473ffffffffffffffffffffffffffffffffffffffff1673ffffffffffffffffffffffffffffffffffffffff1673ffffffffffffffffffffffffffffffffffffffff1681526020016002820154815260200160038201548152602001600482015481526020016005820160009054906101000a900473ffffffffffffffffffffffffffffffffffffffff1673ffffffffffffffffffffffffffffffffffffffff1673ffffffffffffffffffffffffffffffffffffffff1681525050915050610be3565b8080610b9f90611598565b91505061097f565b506040517f08c379a0000000000000000000000000000000000000000000000000000000008152600401610bda90611ae5565b60405180910390fd5b919050565b60008181548110610bf857600080fd5b9060005260206000209060060201600091509050806000018054610c1b90611489565b80601f0160208091040260200160405190810160405280929190818152602001828054610c4790611489565b8015610c945780601f10610c6957610100808354040283529160200191610c94565b820191906000526020600020905b815481529060010190602001808311610c7757829003601f168201915b5050505050908060010160009054906101000a900473ffffffffffffffffffffffffffffffffffffffff16908060020154908060030154908060040154908060050160009054906101000a900473ffffffffffffffffffffffffffffffffffffffff16905086565b600042610d0883610974565b60800151109050919050565b6040518060c0016040528060608152602001600073ffffffffffffffffffffffffffffffffffffffff168152602001600081526020016000815260200160008152602001600073ffffffffffffffffffffffffffffffffffffffff1681525090565b6000604051905090565b600080fd5b600080fd5b600080fd5b600080fd5b6000601f19601f8301169050919050565b7f4e487b7100000000000000000000000000000000000000000000000000000000600052604160045260246000fd5b610ddd82610d94565b810181811067ffffffffffffffff82111715610dfc57610dfb610da5565b5b80604052505050565b6000610e0f610d76565b9050610e1b8282610dd4565b919050565b600067ffffffffffffffff821115610e3b57610e3a610da5565b5b610e4482610d94565b9050602081019050919050565b82818337600083830152505050565b6000610e73610e6e84610e20565b610e05565b905082815260208101848484011115610e8f57610e8e610d8f565b5b610e9a848285610e51565b509392505050565b600082601f830112610eb757610eb6610d8a565b5b8135610ec7848260208601610e60565b91505092915050565b600060208284031215610ee657610ee5610d80565b5b600082013567ffffffffffffffff811115610f0457610f03610d85565b5b610f1084828501610ea2565b91505092915050565b60008115159050919050565b610f2e81610f19565b82525050565b6000602082019050610f496000830184610f25565b92915050565b6000819050919050565b610f6281610f4f565b8114610f6d57600080fd5b50565b600081359050610f7f81610f59565b92915050565b600080600060608486031215610f9e57610f9d610d80565b5b600084013567ffffffffffffffff811115610fbc57610fbb610d85565b5b610fc886828701610ea2565b9350506020610fd986828701610f70565b9250506040610fea86828701610f70565b9150509250925092565b600081519050919050565b600082825260208201905092915050565b60005b8381101561102e578082015181840152602081019050611013565b60008484015250505050565b600061104582610ff4565b61104f8185610fff565b935061105f818560208601611010565b61106881610d94565b840191505092915050565b600073ffffffffffffffffffffffffffffffffffffffff82169050919050565b600061109e82611073565b9050919050565b6110ae81611093565b82525050565b6110bd81610f4f565b82525050565b600060c08301600083015184820360008601526110e0828261103a565b91505060208301516110f560208601826110a5565b50604083015161110860408601826110b4565b50606083015161111b60608601826110b4565b50608083015161112e60808601826110b4565b5060a083015161114160a08601826110a5565b508091505092915050565b6000602082019050818103600083015261116681846110c3565b905092915050565b600081519050919050565b600082825260208201905092915050565b6000819050602082019050919050565b600060c08301600083015184820360008601526111b7828261103a565b91505060208301516111cc60208601826110a5565b5060408301516111df60408601826110b4565b5060608301516111f260608601826110b4565b50608083015161120560808601826110b4565b5060a083015161121860a08601826110a5565b508091505092915050565b600061122f838361119a565b905092915050565b6000602082019050919050565b600061124f8261116e565b6112598185611179565b93508360208202850161126b8561118a565b8060005b858110156112a757848403895281516112888582611223565b945061129383611237565b925060208a0199505060018101905061126f565b50829750879550505050505092915050565b600060208201905081810360008301526112d38184611244565b905092915050565b6000602082840312156112f1576112f0610d80565b5b60006112ff84828501610f70565b91505092915050565b600082825260208201905092915050565b600061132482610ff4565b61132e8185611308565b935061133e818560208601611010565b61134781610d94565b840191505092915050565b61135b81611093565b82525050565b61136a81610f4f565b82525050565b600060c082019050818103600083015261138a8189611319565b90506113996020830188611352565b6113a66040830187611361565b6113b36060830186611361565b6113c06080830185611361565b6113cd60a0830184611352565b979650505050505050565b600081905092915050565b60006113ee82610ff4565b6113f881856113d8565b9350611408818560208601611010565b80840191505092915050565b600061142082846113e3565b915081905092915050565b7f4e487b7100000000000000000000000000000000000000000000000000000000600052603260045260246000fd5b7f4e487b7100000000000000000000000000000000000000000000000000000000600052602260045260246000fd5b600060028204905060018216806114a157607f821691505b6020821081036114b4576114b361145a565b5b50919050565b60008190508160005260206000209050919050565b600081546114dc81611489565b6114e681866113d8565b94506001821660008114611501576001811461151657611549565b60ff1983168652811515820286019350611549565b61151f856114ba565b60005b8381101561154157815481890152600182019150602081019050611522565b838801955050505b50505092915050565b600061155e82846114cf565b915081905092915050565b7f4e487b7100000000000000000000000000000000000000000000000000000000600052601160045260246000fd5b60006115a382610f4f565b91507fffffffffffffffffffffffffffffffffffffffffffffffffffffffffffffffff82036115d5576115d4611569565b5b600182019050919050565b7f4f66666572206973206578706972656400000000000000000000000000000000600082015250565b6000611616601083611308565b9150611621826115e0565b602082019050919050565b6000602082019050818103600083015261164581611609565b9050919050565b7f4f66666572206973206e6f7420617661696c61626c6500000000000000000000600082015250565b6000611682601683611308565b915061168d8261164c565b602082019050919050565b600060208201905081810360008301526116b181611675565b9050919050565b7f4f66666572206964206973206e6f7420756e6971756500000000000000000000600082015250565b60006116ee601683611308565b91506116f9826116b8565b602082019050919050565b6000602082019050818103600083015261171d816116e1565b9050919050565b7f45787069726174696f6e206461746520697320696e2074686520706173740000600082015250565b600061175a601e83611308565b915061176582611724565b602082019050919050565b600060208201905081810360008301526117898161174d565b9050919050565b60006020601f8301049050919050565b600082821b905092915050565b6000600883026117dd7fffffffffffffffffffffffffffffffffffffffffffffffffffffffffffffffff826117a0565b6117e786836117a0565b95508019841693508086168417925050509392505050565b6000819050919050565b600061182461181f61181a84610f4f565b6117ff565b610f4f565b9050919050565b6000819050919050565b61183e83611809565b61185261184a8261182b565b8484546117ad565b825550505050565b600090565b61186761185a565b611872818484611835565b505050565b5b818110156118965761188b60008261185f565b600181019050611878565b5050565b601f8211156118db576118ac816114ba565b6118b584611790565b810160208510156118c4578190505b6118d86118d085611790565b830182611877565b50505b505050565b600082821c905092915050565b60006118fe600019846008026118e0565b1980831691505092915050565b600061191783836118ed565b9150826002028217905092915050565b61193082610ff4565b67ffffffffffffffff81111561194957611948610da5565b5b6119538254611489565b61195e82828561189a565b600060209050601f831160018114611991576000841561197f578287015190505b611989858261190b565b8655506119f1565b601f19841661199f866114ba565b60005b828110156119c7578489015182556001820191506020850194506020810190506119a2565b868310156119e457848901516119e0601f8916826118ed565b8355505b6001600288020188555050505b505050505050565b6000611a0482610f4f565b9150611a0f83610f4f565b9250828203905081811115611a2757611a26611569565b5b92915050565b7f596f7520617265206e6f7420746865206f66666572206f776e65720000000000600082015250565b6000611a63601b83611308565b9150611a6e82611a2d565b602082019050919050565b60006020820190508181036000830152611a9281611a56565b9050919050565b7f4f66666572206e6f7420666f756e640000000000000000000000000000000000600082015250565b6000611acf600f83611308565b9150611ada82611a99565b602082019050919050565b60006020820190508181036000830152611afe81611ac2565b905091905056fea26469706673582212205083a499437e482ce54337de21081aba9db5ee3e6148742053cc8e4a0a8533fb64736f6c63430008100033",
  "immutableReferences": {},
  "source": "//SPDX-License-Identifier: MIT\npragma solidity ^0.8.0;\n\ncontract ManufacturersPool {\n    struct Offer {\n        // Id of the offer\n        string id;\n        // The entity that post an offer to the pool\n        address client;\n        // Required price for the offer\n        uint price;\n        //0 new offer, 1 - accepted, 2 - removed\n        uint state;\n        uint endDate;\n        address manufacturer;\n    }\n\n    Offer[] public offers;\n\n    function isOfferUnique(string memory id) public view returns (bool){\n        for (uint i = 0; i < offers.length; i++) {\n            if (keccak256(abi.encodePacked(offers[i].id)) == keccak256(abi.encodePacked(id))) {\n                return false;\n            }\n        }\n        return true;\n    }\n\n    function addOffer(string memory id, uint price, uint endDate) public returns (Offer memory){\n        //Check if id is unique\n        require(isOfferUnique(id), \"Offer id is not unique\");\n        //Check expiration date\n        require(endDate > block.timestamp, \"Expiration date is in the past\");\n        offers.push(Offer(id, msg.sender, price, 0, endDate, address(0)));\n        return offers[offers.length - 1];\n    }\n\n    //Find offer from offer id revert if not found\n    function getOffer(string memory offerId) public view returns (Offer memory){\n        for (uint i = 0; i < offers.length; i++) {\n            if (keccak256(abi.encodePacked(offers[i].id)) == keccak256(abi.encodePacked(offerId))) {\n                return offers[i];\n            }\n        }\n        revert(\"Offer not found\");\n    }\n\n    function acceptOffer(string memory offerId) public returns (bool){\n        //Get offer\n        Offer memory offer = getOffer(offerId);\n        //Check if offer is expired\n        require(offer.endDate > block.timestamp, \"Offer is expired\");\n\n        //Check if offer is available\n        require(offer.state != 0, \"Offer is not available\");\n\n        offer.manufacturer = msg.sender;\n        offer.state = 1;\n        return true;\n    }\n\n    //Find offer that matches id and set state to 2\n    function removeOffer(string memory offerId) public returns (bool){\n        //Must be the offer owner\n        require(getOffer(offerId).client == msg.sender, \"You are not the offer owner\");\n        Offer memory offer = getOffer(offerId);\n        offer.state = 2;\n        return true;\n    }\n\n    function getOffers() public view returns (Offer[] memory){\n        return offers;\n    }\n\n    function isExpired(string memory offerId) public view returns (bool){\n        return getOffer(offerId).endDate < block.timestamp;\n    }\n}",
  "sourcePath": "/home/marko/Projects/SS22/smartContracts/contracts/ManufacturersPool.sol",
  "compiler": {
    "name": "solc",
    "version": "0.8.16+commit.07a7930e.Emscripten.clang"
  },
  "schemaVersion": "3.4.9",
  "updatedAt": "2022-09-22T07:12:01.387Z",
  "networkType": "ethereum",
  "devdoc": {
    "kind": "dev",
    "methods": {},
    "version": 1
  },
  "userdoc": {
    "kind": "user",
    "methods": {},
    "version": 1
  }
}