{
  "contractName": "ManufacturerRegister",
  "abi": [
    {
      "inputs": [
        {
          "internalType": "uint256",
          "name": "",
          "type": "uint256"
        }
      ],
      "name": "manufacturers",
      "outputs": [
        {
          "internalType": "address",
          "name": "",
          "type": "address"
        }
      ],
      "stateMutability": "view",
      "type": "function",
      "constant": true
    },
    {
      "inputs": [
        {
          "internalType": "address",
          "name": "",
          "type": "address"
        }
      ],
      "name": "web_address",
      "outputs": [
        {
          "internalType": "string",
          "name": "",
          "type": "string"
        }
      ],
      "stateMutability": "view",
      "type": "function",
      "constant": true
    },
    {
      "inputs": [
        {
          "internalType": "string",
          "name": "url",
          "type": "string"
        }
      ],
      "name": "addManufacturer",
      "outputs": [
        {
          "internalType": "bool",
          "name": "",
          "type": "bool"
        }
      ],
      "stateMutability": "nonpayable",
      "type": "function"
    },
    {
      "inputs": [],
      "name": "removeManufacturer",
      "outputs": [
        {
          "internalType": "bool",
          "name": "",
          "type": "bool"
        }
      ],
      "stateMutability": "nonpayable",
      "type": "function"
    },
    {
      "inputs": [
        {
          "internalType": "string",
          "name": "url",
          "type": "string"
        }
      ],
      "name": "changeManufacturer",
      "outputs": [
        {
          "internalType": "bool",
          "name": "",
          "type": "bool"
        }
      ],
      "stateMutability": "nonpayable",
      "type": "function"
    },
    {
      "inputs": [
        {
          "internalType": "address",
          "name": "manufacturer",
          "type": "address"
        }
      ],
      "name": "getManufacturer",
      "outputs": [
        {
          "internalType": "string",
          "name": "",
          "type": "string"
        }
      ],
      "stateMutability": "view",
      "type": "function",
      "constant": true
    },
    {
      "inputs": [],
      "name": "getManufacturers",
      "outputs": [
        {
          "internalType": "address[]",
          "name": "",
          "type": "address[]"
        }
      ],
      "stateMutability": "view",
      "type": "function",
      "constant": true
    },
    {
      "inputs": [],
      "name": "getManufacturersAndUrls",
      "outputs": [
        {
          "internalType": "address[]",
          "name": "",
          "type": "address[]"
        },
        {
          "internalType": "string[]",
          "name": "",
          "type": "string[]"
        }
      ],
      "stateMutability": "view",
      "type": "function",
      "constant": true
    }
  ],
  "bytecode": "0x608060405234801561001057600080fd5b50611300806100206000396000f3fe608060405234801561001057600080fd5b50600436106100885760003560e01c80638f5ae7991161005b5780638f5ae7991461013c57806390175af11461016c578063bc8a23451461019c578063f89620e1146101ba57610088565b8063191bcef61461008d57806337a84cab146100bd578063641fdd8c146100ed57806387df0cbc1461010c575b600080fd5b6100a760048036038101906100a291906109a0565b6101d8565b6040516100b49190610a5d565b60405180910390f35b6100d760048036038101906100d291906109a0565b6102a8565b6040516100e49190610a5d565b60405180910390f35b6100f5610348565b604051610103929190610c49565b60405180910390f35b61012660048036038101906101219190610db5565b610515565b6040516101339190610e19565b60405180910390f35b61015660048036038101906101519190610db5565b61056c565b6040516101639190610e19565b60405180910390f35b61018660048036038101906101819190610e6a565b610626565b6040516101939190610ea6565b60405180910390f35b6101a4610665565b6040516101b19190610ec1565b60405180910390f35b6101c26106f3565b6040516101cf9190610e19565b60405180910390f35b60606000808373ffffffffffffffffffffffffffffffffffffffff1673ffffffffffffffffffffffffffffffffffffffff168152602001908152602001600020805461022390610f12565b80601f016020809104026020016040519081016040528092919081815260200182805461024f90610f12565b801561029c5780601f106102715761010080835404028352916020019161029c565b820191906000526020600020905b81548152906001019060200180831161027f57829003601f168201915b50505050509050919050565b600060205280600052604060002060009150905080546102c790610f12565b80601f01602080910402602001604051908101604052809291908181526020018280546102f390610f12565b80156103405780601f1061031557610100808354040283529160200191610340565b820191906000526020600020905b81548152906001019060200180831161032357829003601f168201915b505050505081565b606080600060018054905067ffffffffffffffff81111561036c5761036b610c8a565b5b60405190808252806020026020018201604052801561039a5781602001602082028036833780820191505090505b509050600060018054905067ffffffffffffffff8111156103be576103bd610c8a565b5b6040519080825280602002602001820160405280156103f157816020015b60608152602001906001900390816103dc5790505b50905060005b600180549050811015610508576001818154811061041857610417610f43565b5b9060005260206000200160009054906101000a900473ffffffffffffffffffffffffffffffffffffffff1683828151811061045657610455610f43565b5b602002602001019073ffffffffffffffffffffffffffffffffffffffff16908173ffffffffffffffffffffffffffffffffffffffff16815250506104d7600182815481106104a7576104a6610f43565b5b9060005260206000200160009054906101000a900473ffffffffffffffffffffffffffffffffffffffff166101d8565b8282815181106104ea576104e9610f43565b5b6020026020010181905250808061050090610fa1565b9150506103f7565b5081819350935050509091565b6000816000803373ffffffffffffffffffffffffffffffffffffffff1673ffffffffffffffffffffffffffffffffffffffff16815260200190815260200160002090816105629190611195565b5060019050919050565b6000816000803373ffffffffffffffffffffffffffffffffffffffff1673ffffffffffffffffffffffffffffffffffffffff16815260200190815260200160002090816105b99190611195565b506001339080600181540180825580915050600190039060005260206000200160009091909190916101000a81548173ffffffffffffffffffffffffffffffffffffffff021916908373ffffffffffffffffffffffffffffffffffffffff16021790555060019050919050565b6001818154811061063657600080fd5b906000526020600020016000915054906101000a900473ffffffffffffffffffffffffffffffffffffffff1681565b606060018054806020026020016040519081016040528092919081815260200182805480156106e957602002820191906000526020600020905b8160009054906101000a900473ffffffffffffffffffffffffffffffffffffffff1673ffffffffffffffffffffffffffffffffffffffff168152602001906001019080831161069f575b5050505050905090565b60008060003373ffffffffffffffffffffffffffffffffffffffff1673ffffffffffffffffffffffffffffffffffffffff168152602001908152602001600020600061073f91906108d1565b60005b6001805490508110156108c9573373ffffffffffffffffffffffffffffffffffffffff166001828154811061077a57610779610f43565b5b9060005260206000200160009054906101000a900473ffffffffffffffffffffffffffffffffffffffff1673ffffffffffffffffffffffffffffffffffffffff16036108b65760018080805490506107d29190611267565b815481106107e3576107e2610f43565b5b9060005260206000200160009054906101000a900473ffffffffffffffffffffffffffffffffffffffff166001828154811061082257610821610f43565b5b9060005260206000200160006101000a81548173ffffffffffffffffffffffffffffffffffffffff021916908373ffffffffffffffffffffffffffffffffffffffff160217905550600180548061087c5761087b61129b565b5b6001900381819060005260206000200160006101000a81549073ffffffffffffffffffffffffffffffffffffffff021916905590556108c9565b80806108c190610fa1565b915050610742565b506001905090565b5080546108dd90610f12565b6000825580601f106108ef575061090e565b601f01602090049060005260206000209081019061090d9190610911565b5b50565b5b8082111561092a576000816000905550600101610912565b5090565b6000604051905090565b600080fd5b600080fd5b600073ffffffffffffffffffffffffffffffffffffffff82169050919050565b600061096d82610942565b9050919050565b61097d81610962565b811461098857600080fd5b50565b60008135905061099a81610974565b92915050565b6000602082840312156109b6576109b5610938565b5b60006109c48482850161098b565b91505092915050565b600081519050919050565b600082825260208201905092915050565b60005b83811015610a075780820151818401526020810190506109ec565b60008484015250505050565b6000601f19601f8301169050919050565b6000610a2f826109cd565b610a3981856109d8565b9350610a498185602086016109e9565b610a5281610a13565b840191505092915050565b60006020820190508181036000830152610a778184610a24565b905092915050565b600081519050919050565b600082825260208201905092915050565b6000819050602082019050919050565b610ab481610962565b82525050565b6000610ac68383610aab565b60208301905092915050565b6000602082019050919050565b6000610aea82610a7f565b610af48185610a8a565b9350610aff83610a9b565b8060005b83811015610b30578151610b178882610aba565b9750610b2283610ad2565b925050600181019050610b03565b5085935050505092915050565b600081519050919050565b600082825260208201905092915050565b6000819050602082019050919050565b600082825260208201905092915050565b6000610b85826109cd565b610b8f8185610b69565b9350610b9f8185602086016109e9565b610ba881610a13565b840191505092915050565b6000610bbf8383610b7a565b905092915050565b6000602082019050919050565b6000610bdf82610b3d565b610be98185610b48565b935083602082028501610bfb85610b59565b8060005b85811015610c375784840389528151610c188582610bb3565b9450610c2383610bc7565b925060208a01995050600181019050610bff565b50829750879550505050505092915050565b60006040820190508181036000830152610c638185610adf565b90508181036020830152610c778184610bd4565b90509392505050565b600080fd5b600080fd5b7f4e487b7100000000000000000000000000000000000000000000000000000000600052604160045260246000fd5b610cc282610a13565b810181811067ffffffffffffffff82111715610ce157610ce0610c8a565b5b80604052505050565b6000610cf461092e565b9050610d008282610cb9565b919050565b600067ffffffffffffffff821115610d2057610d1f610c8a565b5b610d2982610a13565b9050602081019050919050565b82818337600083830152505050565b6000610d58610d5384610d05565b610cea565b905082815260208101848484011115610d7457610d73610c85565b5b610d7f848285610d36565b509392505050565b600082601f830112610d9c57610d9b610c80565b5b8135610dac848260208601610d45565b91505092915050565b600060208284031215610dcb57610dca610938565b5b600082013567ffffffffffffffff811115610de957610de861093d565b5b610df584828501610d87565b91505092915050565b60008115159050919050565b610e1381610dfe565b82525050565b6000602082019050610e2e6000830184610e0a565b92915050565b6000819050919050565b610e4781610e34565b8114610e5257600080fd5b50565b600081359050610e6481610e3e565b92915050565b600060208284031215610e8057610e7f610938565b5b6000610e8e84828501610e55565b91505092915050565b610ea081610962565b82525050565b6000602082019050610ebb6000830184610e97565b92915050565b60006020820190508181036000830152610edb8184610adf565b905092915050565b7f4e487b7100000000000000000000000000000000000000000000000000000000600052602260045260246000fd5b60006002820490506001821680610f2a57607f821691505b602082108103610f3d57610f3c610ee3565b5b50919050565b7f4e487b7100000000000000000000000000000000000000000000000000000000600052603260045260246000fd5b7f4e487b7100000000000000000000000000000000000000000000000000000000600052601160045260246000fd5b6000610fac82610e34565b91507fffffffffffffffffffffffffffffffffffffffffffffffffffffffffffffffff8203610fde57610fdd610f72565b5b600182019050919050565b60008190508160005260206000209050919050565b60006020601f8301049050919050565b600082821b905092915050565b60006008830261104b7fffffffffffffffffffffffffffffffffffffffffffffffffffffffffffffffff8261100e565b611055868361100e565b95508019841693508086168417925050509392505050565b6000819050919050565b600061109261108d61108884610e34565b61106d565b610e34565b9050919050565b6000819050919050565b6110ac83611077565b6110c06110b882611099565b84845461101b565b825550505050565b600090565b6110d56110c8565b6110e08184846110a3565b505050565b5b81811015611104576110f96000826110cd565b6001810190506110e6565b5050565b601f8211156111495761111a81610fe9565b61112384610ffe565b81016020851015611132578190505b61114661113e85610ffe565b8301826110e5565b50505b505050565b600082821c905092915050565b600061116c6000198460080261114e565b1980831691505092915050565b6000611185838361115b565b9150826002028217905092915050565b61119e826109cd565b67ffffffffffffffff8111156111b7576111b6610c8a565b5b6111c18254610f12565b6111cc828285611108565b600060209050601f8311600181146111ff57600084156111ed578287015190505b6111f78582611179565b86555061125f565b601f19841661120d86610fe9565b60005b8281101561123557848901518255600182019150602085019450602081019050611210565b86831015611252578489015161124e601f89168261115b565b8355505b6001600288020188555050505b505050505050565b600061127282610e34565b915061127d83610e34565b925082820390508181111561129557611294610f72565b5b92915050565b7f4e487b7100000000000000000000000000000000000000000000000000000000600052603160045260246000fdfea2646970667358221220ac39917889e3fe2404583af35d3dabcd6f7df1ca2373a47464be24c1d8cced1a64736f6c63430008100033",
  "immutableReferences": {},
  "source": "//SPDX-License-Identifier: MIT\npragma solidity ^0.8.0;\n\ncontract ManufacturerRegister {\n    mapping(address => string) public web_address;\n    address[] public manufacturers;\n\n    function addManufacturer(string memory url) public returns (bool){\n        web_address[msg.sender] = url;\n        manufacturers.push(msg.sender);\n        return true;\n    }\n\n    function removeManufacturer() public returns (bool){\n        delete web_address[msg.sender];\n        // Remove manufacturer address from array\n        for (uint i = 0; i < manufacturers.length; i++) {\n            if (manufacturers[i] == msg.sender) {\n                manufacturers[i] = manufacturers[manufacturers.length - 1];\n                manufacturers.pop();\n                break;\n            }\n        }\n        return true;\n    }\n\n    function changeManufacturer(string memory url) public returns (bool){\n        web_address[msg.sender] = url;\n        return true;\n    }\n\n    function getManufacturer(address manufacturer) public view returns (string memory){\n        return web_address[manufacturer];\n    }\n\n    function getManufacturers() public view returns (address[] memory){\n        return manufacturers;\n    }\n\n    //Get manufacturers and return address and urls\n    function getManufacturersAndUrls() public view returns (address[] memory, string[] memory){\n        address[] memory addresses = new address[](manufacturers.length);\n        string[] memory urls = new string[](manufacturers.length);\n        for(uint i = 0; i < manufacturers.length; i++){\n            addresses[i] = manufacturers[i];\n            urls[i] = getManufacturer(manufacturers[i]);\n        }\n        return (addresses, urls);\n    }\n}\n",
  "sourcePath": "/home/marko/Projects/SS22/smartContracts/contracts/ManufacturerRegister.sol",
  "compiler": {
    "name": "solc",
    "version": "0.8.16+commit.07a7930e.Emscripten.clang"
  },
  "schemaVersion": "3.4.9",
  "updatedAt": "2022-09-15T11:36:57.174Z",
  "networkType": "ethereum",
  "devdoc": {
    "kind": "dev",
    "methods": {},
    "version": 1
  },
  "userdoc": {
    "kind": "user",
    "methods": {},
    "version": 1
  }
}