{
  "contractName": "Register",
  "abi": [
    {
      "inputs": [
        {
          "internalType": "address",
          "name": "",
          "type": "address"
        }
      ],
      "name": "urls",
      "outputs": [
        {
          "internalType": "string",
          "name": "",
          "type": "string"
        }
      ],
      "stateMutability": "view",
      "type": "function",
      "constant": true
    },
    {
      "inputs": [
        {
          "internalType": "string",
          "name": "url",
          "type": "string"
        }
      ],
      "name": "addManufacturer",
      "outputs": [
        {
          "internalType": "bool",
          "name": "",
          "type": "bool"
        }
      ],
      "stateMutability": "nonpayable",
      "type": "function"
    },
    {
      "inputs": [],
      "name": "removeManufacturer",
      "outputs": [
        {
          "internalType": "bool",
          "name": "",
          "type": "bool"
        }
      ],
      "stateMutability": "nonpayable",
      "type": "function"
    },
    {
      "inputs": [
        {
          "internalType": "string",
          "name": "url",
          "type": "string"
        }
      ],
      "name": "changeManufacturer",
      "outputs": [
        {
          "internalType": "bool",
          "name": "",
          "type": "bool"
        }
      ],
      "stateMutability": "nonpayable",
      "type": "function"
    },
    {
      "inputs": [
        {
          "internalType": "address",
          "name": "manufacturer",
          "type": "address"
        }
      ],
      "name": "getManufacturer",
      "outputs": [
        {
          "internalType": "string",
          "name": "",
          "type": "string"
        }
      ],
      "stateMutability": "view",
      "type": "function",
      "constant": true
    }
  ],
  "bytecode": "0x608060405234801561001057600080fd5b50610a2b806100206000396000f3fe608060405234801561001057600080fd5b50600436106100575760003560e01c8063191bcef61461005c57806387df0cbc1461008c5780638f5ae799146100bc578063d888e614146100ec578063f89620e11461011c575b600080fd5b6100766004803603810190610071919061047a565b61013a565b6040516100839190610537565b60405180910390f35b6100a660048036038101906100a1919061068e565b61020a565b6040516100b391906106f2565b60405180910390f35b6100d660048036038101906100d1919061068e565b610261565b6040516100e391906106f2565b60405180910390f35b6101066004803603810190610101919061047a565b6102b8565b6040516101139190610537565b60405180910390f35b610124610358565b60405161013191906106f2565b60405180910390f35b60606000808373ffffffffffffffffffffffffffffffffffffffff1673ffffffffffffffffffffffffffffffffffffffff16815260200190815260200160002080546101859061073c565b80601f01602080910402602001604051908101604052809291908181526020018280546101b19061073c565b80156101fe5780601f106101d3576101008083540402835291602001916101fe565b820191906000526020600020905b8154815290600101906020018083116101e157829003601f168201915b50505050509050919050565b6000816000803373ffffffffffffffffffffffffffffffffffffffff1673ffffffffffffffffffffffffffffffffffffffff16815260200190815260200160002090816102579190610923565b5060019050919050565b6000816000803373ffffffffffffffffffffffffffffffffffffffff1673ffffffffffffffffffffffffffffffffffffffff16815260200190815260200160002090816102ae9190610923565b5060019050919050565b600060205280600052604060002060009150905080546102d79061073c565b80601f01602080910402602001604051908101604052809291908181526020018280546103039061073c565b80156103505780601f1061032557610100808354040283529160200191610350565b820191906000526020600020905b81548152906001019060200180831161033357829003601f168201915b505050505081565b60008060003373ffffffffffffffffffffffffffffffffffffffff1673ffffffffffffffffffffffffffffffffffffffff16815260200190815260200160002060006103a491906103ab565b6001905090565b5080546103b79061073c565b6000825580601f106103c957506103e8565b601f0160209004906000526020600020908101906103e791906103eb565b5b50565b5b808211156104045760008160009055506001016103ec565b5090565b6000604051905090565b600080fd5b600080fd5b600073ffffffffffffffffffffffffffffffffffffffff82169050919050565b60006104478261041c565b9050919050565b6104578161043c565b811461046257600080fd5b50565b6000813590506104748161044e565b92915050565b6000602082840312156104905761048f610412565b5b600061049e84828501610465565b91505092915050565b600081519050919050565b600082825260208201905092915050565b60005b838110156104e15780820151818401526020810190506104c6565b60008484015250505050565b6000601f19601f8301169050919050565b6000610509826104a7565b61051381856104b2565b93506105238185602086016104c3565b61052c816104ed565b840191505092915050565b6000602082019050818103600083015261055181846104fe565b905092915050565b600080fd5b600080fd5b7f4e487b7100000000000000000000000000000000000000000000000000000000600052604160045260246000fd5b61059b826104ed565b810181811067ffffffffffffffff821117156105ba576105b9610563565b5b80604052505050565b60006105cd610408565b90506105d98282610592565b919050565b600067ffffffffffffffff8211156105f9576105f8610563565b5b610602826104ed565b9050602081019050919050565b82818337600083830152505050565b600061063161062c846105de565b6105c3565b90508281526020810184848401111561064d5761064c61055e565b5b61065884828561060f565b509392505050565b600082601f83011261067557610674610559565b5b813561068584826020860161061e565b91505092915050565b6000602082840312156106a4576106a3610412565b5b600082013567ffffffffffffffff8111156106c2576106c1610417565b5b6106ce84828501610660565b91505092915050565b60008115159050919050565b6106ec816106d7565b82525050565b600060208201905061070760008301846106e3565b92915050565b7f4e487b7100000000000000000000000000000000000000000000000000000000600052602260045260246000fd5b6000600282049050600182168061075457607f821691505b6020821081036107675761076661070d565b5b50919050565b60008190508160005260206000209050919050565b60006020601f8301049050919050565b600082821b905092915050565b6000600883026107cf7fffffffffffffffffffffffffffffffffffffffffffffffffffffffffffffffff82610792565b6107d98683610792565b95508019841693508086168417925050509392505050565b6000819050919050565b6000819050919050565b600061082061081b610816846107f1565b6107fb565b6107f1565b9050919050565b6000819050919050565b61083a83610805565b61084e61084682610827565b84845461079f565b825550505050565b600090565b610863610856565b61086e818484610831565b505050565b5b818110156108925761088760008261085b565b600181019050610874565b5050565b601f8211156108d7576108a88161076d565b6108b184610782565b810160208510156108c0578190505b6108d46108cc85610782565b830182610873565b50505b505050565b600082821c905092915050565b60006108fa600019846008026108dc565b1980831691505092915050565b600061091383836108e9565b9150826002028217905092915050565b61092c826104a7565b67ffffffffffffffff81111561094557610944610563565b5b61094f825461073c565b61095a828285610896565b600060209050601f83116001811461098d576000841561097b578287015190505b6109858582610907565b8655506109ed565b601f19841661099b8661076d565b60005b828110156109c35784890151825560018201915060208501945060208101905061099e565b868310156109e057848901516109dc601f8916826108e9565b8355505b6001600288020188555050505b50505050505056fea264697066735822122047b186f0fd9b89da35ce4eda22df2cf6da64740a2dfa4f503742f10814644e2964736f6c63430008100033",
  "immutableReferences": {},
  "source": "//SPDX-License-Identifier: MIT\npragma solidity ^0.8.0;\n\ncontract Register {\n    mapping(address => string) public urls;\n\n    function addManufacturer(string memory url) public returns (bool){\n        urls[msg.sender] = url;\n        return true;\n    }\n\n    function removeManufacturer() public returns (bool){\n        delete urls[msg.sender];\n        return true;\n    }\n\n    function changeManufacturer(string memory url) public returns (bool){\n        urls[msg.sender] = url;\n        return true;\n    }\n\n    function getManufacturer(address manufacturer) public view returns (string memory){\n        return urls[manufacturer];\n    }\n}\n",
  "sourcePath": "/home/marko/Projects/SS22/smartContracts/contracts/Register.sol",
  "compiler": {
    "name": "solc",
    "version": "0.8.16+commit.07a7930e.Emscripten.clang"
  },
  "schemaVersion": "3.4.9",
  "updatedAt": "2022-09-09T12:28:41.866Z",
  "networkType": "ethereum",
  "devdoc": {
    "kind": "dev",
    "methods": {},
    "version": 1
  },
  "userdoc": {
    "kind": "user",
    "methods": {},
    "version": 1
  }
}